{"contracts/Paymaster.sol":{"Paymaster":{"abi":[{"inputs":[{"internalType":"address","name":"_entryPoint","type":"address"},{"internalType":"address","name":"_owner","type":"address"}],"stateMutability":"nonpayable","type":"constructor"},{"inputs":[],"name":"InvalidPaymasterAndDataLength","type":"error"},{"inputs":[],"name":"InvalidTimestamp","type":"error"},{"inputs":[{"internalType":"address","name":"owner","type":"address"}],"name":"OwnableInvalidOwner","type":"error"},{"inputs":[{"internalType":"address","name":"account","type":"address"}],"name":"OwnableUnauthorizedAccount","type":"error"},{"inputs":[],"name":"UnsupportedTarget","type":"error"},{"anonymous":false,"inputs":[{"indexed":true,"internalType":"address","name":"depositor","type":"address"},{"indexed":false,"internalType":"uint256","name":"amount","type":"uint256"}],"name":"FundsDeposited","type":"event"},{"anonymous":false,"inputs":[{"indexed":true,"internalType":"address","name":"previousOwner","type":"address"},{"indexed":true,"internalType":"address","name":"newOwner","type":"address"}],"name":"OwnershipTransferred","type":"event"},{"anonymous":false,"inputs":[{"indexed":true,"internalType":"address","name":"target","type":"address"},{"indexed":false,"internalType":"bool","name":"supported","type":"bool"}],"name":"TargetSupportChanged","type":"event"},{"inputs":[{"internalType":"uint256","name":"verificationGasLimit","type":"uint256"},{"internalType":"uint256","name":"postOpGasLimit","type":"uint256"},{"internalType":"uint48","name":"validUntil","type":"uint48"},{"internalType":"uint48","name":"validAfter","type":"uint48"}],"name":"createPaymasterAndData","outputs":[{"internalType":"bytes","name":"","type":"bytes"}],"stateMutability":"view","type":"function"},{"inputs":[],"name":"depositToEntryPoint","outputs":[],"stateMutability":"payable","type":"function"},{"inputs":[],"name":"entryPoint","outputs":[{"internalType":"contract IEntryPoint","name":"","type":"address"}],"stateMutability":"view","type":"function"},{"inputs":[],"name":"owner","outputs":[{"internalType":"address","name":"","type":"address"}],"stateMutability":"view","type":"function"},{"inputs":[{"internalType":"enum IPaymaster.PostOpMode","name":"","type":"uint8"},{"internalType":"bytes","name":"","type":"bytes"},{"internalType":"uint256","name":"","type":"uint256"},{"internalType":"uint256","name":"","type":"uint256"}],"name":"postOp","outputs":[],"stateMutability":"nonpayable","type":"function"},{"inputs":[],"name":"renounceOwnership","outputs":[],"stateMutability":"nonpayable","type":"function"},{"inputs":[{"internalType":"address","name":"target","type":"address"},{"internalType":"bool","name":"supported","type":"bool"}],"name":"setSupportedTarget","outputs":[],"stateMutability":"nonpayable","type":"function"},{"inputs":[{"internalType":"address","name":"","type":"address"}],"name":"supportedTargets","outputs":[{"internalType":"bool","name":"","type":"bool"}],"stateMutability":"view","type":"function"},{"inputs":[{"internalType":"address","name":"newOwner","type":"address"}],"name":"transferOwnership","outputs":[],"stateMutability":"nonpayable","type":"function"},{"inputs":[{"components":[{"internalType":"address","name":"sender","type":"address"},{"internalType":"uint256","name":"nonce","type":"uint256"},{"internalType":"bytes","name":"initCode","type":"bytes"},{"internalType":"bytes","name":"callData","type":"bytes"},{"internalType":"bytes32","name":"accountGasLimits","type":"bytes32"},{"internalType":"uint256","name":"preVerificationGas","type":"uint256"},{"internalType":"bytes32","name":"gasFees","type":"bytes32"},{"internalType":"bytes","name":"paymasterAndData","type":"bytes"},{"internalType":"bytes","name":"signature","type":"bytes"}],"internalType":"struct PackedUserOperation","name":"userOp","type":"tuple"},{"internalType":"bytes32","name":"","type":"bytes32"},{"internalType":"uint256","name":"","type":"uint256"}],"name":"validatePaymasterUserOp","outputs":[{"internalType":"bytes","name":"context","type":"bytes"},{"internalType":"uint256","name":"validationData","type":"uint256"}],"stateMutability":"view","type":"function"}],"evm":{"bytecode":{"linkReferences":{},"object":"60a060405234801561000f575f5ffd5b50604051610cf3380380610cf383398101604081905261002e916100e2565b806001600160a01b03811661005c57604051631e4fbdf760e01b81525f600482015260240160405180910390fd5b61006581610078565b50506001600160a01b0316608052610113565b5f80546001600160a01b038381166001600160a01b0319831681178455604051919092169283917f8be0079c531659141344cd1fd0a4f28419497f9722a3daafe3b4186f6b6457e09190a35050565b80516001600160a01b03811681146100dd575f5ffd5b919050565b5f5f604083850312156100f3575f5ffd5b6100fc836100c7565b915061010a602084016100c7565b90509250929050565b608051610bc16101325f395f818161020101526102950152610bc15ff3fe60806040526004361061008f575f3560e01c80638f8780a4116100575780638f8780a414610138578063a19f212f146101d1578063b0d691fe146101f0578063dc69c06f14610223578063f2fde38b14610261575f5ffd5b80631b3ba1011461009357806352b7512c1461009d578063715018a6146100d35780637c627b21146100e75780638da5cb5b14610108575b5f5ffd5b61009b610280565b005b3480156100a8575f5ffd5b506100bc6100b7366004610832565b61032f565b6040516100ca9291906108af565b60405180910390f35b3480156100de575f5ffd5b5061009b610510565b3480156100f2575f5ffd5b5061009b6101013660046108d0565b5050505050565b348015610113575f5ffd5b505f546001600160a01b03165b6040516001600160a01b0390911681526020016100ca565b348015610143575f5ffd5b506101c461015236600461097e565b6040805130606090811b6bffffffffffffffffffffffff19166020830152608096871b6001600160801b031990811660348401529590961b909416604485015260d092831b6001600160d01b031990811660548601529190921b16605a83015280518083038201815292909101905290565b6040516100ca91906109c1565b3480156101dc575f5ffd5b5061009b6101eb3660046109f0565b610523565b3480156101fb575f5ffd5b506101207f000000000000000000000000000000000000000000000000000000000000000081565b34801561022e575f5ffd5b5061025161023d366004610a29565b60016020525f908152604090205460ff1681565b60405190151581526020016100ca565b34801561026c575f5ffd5b5061009b61027b366004610a29565b610589565b60405163b760faf960e01b81523060048201527f00000000000000000000000000000000000000000000000000000000000000006001600160a01b03169063b760faf99034906024015f604051808303818588803b1580156102e0575f5ffd5b505af11580156102f2573d5f5f3e3d5ffd5b50506040513481523393507f543ba50a5eec5e6178218e364b1d0f396157b3c8fa278522c2cb7fd99407d4749250602001905060405180910390a2565b60605f80808061034a61034560e08a018a610a42565b6105c6565b919450925090506001600160a01b03831630146103ae5760405162461bcd60e51b815260206004820152601d60248201527f4141393320696e76616c6964207061796d6173746572416e644461746100000060448201526064015b60405180910390fd5b5f6103c46103bf60608b018b610a42565b610636565b6001600160a01b0381165f9081526001602052604090205490915060ff1661042e5760405162461bcd60e51b815260206004820152601f60248201527f5061796d61737465723a20746172676574206e6f7420737570706f727465640060448201526064016103a5565b5f8061044561044060e08d018d610a42565b6106b5565b915091508065ffffffffffff164210156104985760405162461bcd60e51b81526020600482015260146024820152735061796d61737465723a20746f6f206561726c7960601b60448201526064016103a5565b8165ffffffffffff164211156104e65760405162461bcd60e51b81526020600482015260136024820152725061796d61737465723a20746f6f206c61746560681b60448201526064016103a5565b6104f15f8383610779565b60408051602081019091525f81529c909b509950505050505050505050565b6105186107b7565b6105215f6107e3565b565b61052b6107b7565b6001600160a01b0382165f81815260016020908152604091829020805460ff191685151590811790915591519182527fe5239967f86bdfebd2052a7d2539a8359f2cdefacfbdeb04bdd72e854c994553910160405180910390a25050565b6105916107b7565b6001600160a01b0381166105ba57604051631e4fbdf760e01b81525f60048201526024016103a5565b6105c3816107e3565b50565b5f80806105d66014828688610a8c565b6105df91610ab3565b60601c6105f0602460148789610a8c565b6105f991610b00565b60801c61060a60346024888a610a8c565b61061391610b00565b9194506fffffffffffffffffffffffffffffffff16925060801c90509250925092565b5f60148210156106935760405162461bcd60e51b815260206004820152602260248201527f5061796d61737465723a20696e76616c69642063616c6c44617461206c656e676044820152610e8d60f31b60648201526084016103a5565b6106a060145f8486610a8c565b6106a991610ab3565b60601c90505b92915050565b5f806106c36034600c610b36565b8310156107125760405162461bcd60e51b815260206004820152601c60248201527f5061796d61737465723a20696e76616c69642074696d6520646174610000000060448201526064016103a5565b83603484610721826006610b36565b9261072e93929190610a8c565b61073791610b55565b60d01c9150838361074a60346006610b36565b906107576034600c610b36565b9261076493929190610a8c565b61076d91610b55565b60d01c90509250929050565b5f609084610787575f61078a565b60015b60ff16901b60ff1660608365ffffffffffff16901b60308565ffffffffffff16901b171790509392505050565b5f546001600160a01b031633146105215760405163118cdaa760e01b81523360048201526024016103a5565b5f80546001600160a01b038381166001600160a01b0319831681178455604051919092169283917f8be0079c531659141344cd1fd0a4f28419497f9722a3daafe3b4186f6b6457e09190a35050565b5f5f5f60608486031215610844575f5ffd5b833567ffffffffffffffff81111561085a575f5ffd5b8401610120818703121561086c575f5ffd5b95602085013595506040909401359392505050565b5f81518084528060208401602086015e5f602082860101526020601f19601f83011685010191505092915050565b604081525f6108c16040830185610881565b90508260208301529392505050565b5f5f5f5f5f608086880312156108e4575f5ffd5b8535600381106108f2575f5ffd5b9450602086013567ffffffffffffffff81111561090d575f5ffd5b8601601f8101881361091d575f5ffd5b803567ffffffffffffffff811115610933575f5ffd5b886020828401011115610944575f5ffd5b959860209190910197509495604081013595606090910135945092505050565b803565ffffffffffff81168114610979575f5ffd5b919050565b5f5f5f5f60808587031215610991575f5ffd5b84359350602085013592506109a860408601610964565b91506109b660608601610964565b905092959194509250565b602081525f6109d36020830184610881565b9392505050565b80356001600160a01b0381168114610979575f5ffd5b5f5f60408385031215610a01575f5ffd5b610a0a836109da565b915060208301358015158114610a1e575f5ffd5b809150509250929050565b5f60208284031215610a39575f5ffd5b6109d3826109da565b5f5f8335601e19843603018112610a57575f5ffd5b83018035915067ffffffffffffffff821115610a71575f5ffd5b602001915036819003821315610a85575f5ffd5b9250929050565b5f5f85851115610a9a575f5ffd5b83861115610aa6575f5ffd5b5050820193919092039150565b80356bffffffffffffffffffffffff198116906014841015610af9576bffffffffffffffffffffffff196bffffffffffffffffffffffff198560140360031b1b82161691505b5092915050565b80356001600160801b03198116906010841015610af9576001600160801b031960109490940360031b84901b1690921692915050565b808201808211156106af57634e487b7160e01b5f52601160045260245ffd5b80356001600160d01b03198116906006841015610af9576001600160d01b031960069490940360031b84901b169092169291505056fea2646970667358221220296eeac24636ea119210f213907b5e4a2be5be9746dacab280f4e9939848aa9a64736f6c634300081c0033","opcodes":"PUSH1 0xA0 PUSH1 0x40 MSTORE CALLVALUE DUP1 ISZERO PUSH2 0xF JUMPI PUSH0 PUSH0 REVERT JUMPDEST POP PUSH1 0x40 MLOAD PUSH2 0xCF3 CODESIZE SUB DUP1 PUSH2 0xCF3 DUP4 CODECOPY DUP2 ADD PUSH1 0x40 DUP2 SWAP1 MSTORE PUSH2 0x2E SWAP2 PUSH2 0xE2 JUMP JUMPDEST DUP1 PUSH1 0x1 PUSH1 0x1 PUSH1 0xA0 SHL SUB DUP2 AND PUSH2 0x5C JUMPI PUSH1 0x40 MLOAD PUSH4 0x1E4FBDF7 PUSH1 0xE0 SHL DUP2 MSTORE PUSH0 PUSH1 0x4 DUP3 ADD MSTORE PUSH1 0x24 ADD PUSH1 0x40 MLOAD DUP1 SWAP2 SUB SWAP1 REVERT JUMPDEST PUSH2 0x65 DUP2 PUSH2 0x78 JUMP JUMPDEST POP POP PUSH1 0x1 PUSH1 0x1 PUSH1 0xA0 SHL SUB AND PUSH1 0x80 MSTORE PUSH2 0x113 JUMP JUMPDEST PUSH0 DUP1 SLOAD PUSH1 0x1 PUSH1 0x1 PUSH1 0xA0 SHL SUB DUP4 DUP2 AND PUSH1 0x1 PUSH1 0x1 PUSH1 0xA0 SHL SUB NOT DUP4 AND DUP2 OR DUP5 SSTORE PUSH1 0x40 MLOAD SWAP2 SWAP1 SWAP3 AND SWAP3 DUP4 SWAP2 PUSH32 0x8BE0079C531659141344CD1FD0A4F28419497F9722A3DAAFE3B4186F6B6457E0 SWAP2 SWAP1 LOG3 POP POP JUMP JUMPDEST DUP1 MLOAD PUSH1 0x1 PUSH1 0x1 PUSH1 0xA0 SHL SUB DUP2 AND DUP2 EQ PUSH2 0xDD JUMPI PUSH0 PUSH0 REVERT JUMPDEST SWAP2 SWAP1 POP JUMP JUMPDEST PUSH0 PUSH0 PUSH1 0x40 DUP4 DUP6 SUB SLT ISZERO PUSH2 0xF3 JUMPI PUSH0 PUSH0 REVERT JUMPDEST PUSH2 0xFC DUP4 PUSH2 0xC7 JUMP JUMPDEST SWAP2 POP PUSH2 0x10A PUSH1 0x20 DUP5 ADD PUSH2 0xC7 JUMP JUMPDEST SWAP1 POP SWAP3 POP SWAP3 SWAP1 POP JUMP JUMPDEST PUSH1 0x80 MLOAD PUSH2 0xBC1 PUSH2 0x132 PUSH0 CODECOPY PUSH0 DUP2 DUP2 PUSH2 0x201 ADD MSTORE PUSH2 0x295 ADD MSTORE PUSH2 0xBC1 PUSH0 RETURN INVALID PUSH1 0x80 PUSH1 0x40 MSTORE PUSH1 0x4 CALLDATASIZE LT PUSH2 0x8F JUMPI PUSH0 CALLDATALOAD PUSH1 0xE0 SHR DUP1 PUSH4 0x8F8780A4 GT PUSH2 0x57 JUMPI DUP1 PUSH4 0x8F8780A4 EQ PUSH2 0x138 JUMPI DUP1 PUSH4 0xA19F212F EQ PUSH2 0x1D1 JUMPI DUP1 PUSH4 0xB0D691FE EQ PUSH2 0x1F0 JUMPI DUP1 PUSH4 0xDC69C06F EQ PUSH2 0x223 JUMPI DUP1 PUSH4 0xF2FDE38B EQ PUSH2 0x261 JUMPI PUSH0 PUSH0 REVERT JUMPDEST DUP1 PUSH4 0x1B3BA101 EQ PUSH2 0x93 JUMPI DUP1 PUSH4 0x52B7512C EQ PUSH2 0x9D JUMPI DUP1 PUSH4 0x715018A6 EQ PUSH2 0xD3 JUMPI DUP1 PUSH4 0x7C627B21 EQ PUSH2 0xE7 JUMPI DUP1 PUSH4 0x8DA5CB5B EQ PUSH2 0x108 JUMPI JUMPDEST PUSH0 PUSH0 REVERT JUMPDEST PUSH2 0x9B PUSH2 0x280 JUMP JUMPDEST STOP JUMPDEST CALLVALUE DUP1 ISZERO PUSH2 0xA8 JUMPI PUSH0 PUSH0 REVERT JUMPDEST POP PUSH2 0xBC PUSH2 0xB7 CALLDATASIZE PUSH1 0x4 PUSH2 0x832 JUMP JUMPDEST PUSH2 0x32F JUMP JUMPDEST PUSH1 0x40 MLOAD PUSH2 0xCA SWAP3 SWAP2 SWAP1 PUSH2 0x8AF JUMP JUMPDEST PUSH1 0x40 MLOAD DUP1 SWAP2 SUB SWAP1 RETURN JUMPDEST CALLVALUE DUP1 ISZERO PUSH2 0xDE JUMPI PUSH0 PUSH0 REVERT JUMPDEST POP PUSH2 0x9B PUSH2 0x510 JUMP JUMPDEST CALLVALUE DUP1 ISZERO PUSH2 0xF2 JUMPI PUSH0 PUSH0 REVERT JUMPDEST POP PUSH2 0x9B PUSH2 0x101 CALLDATASIZE PUSH1 0x4 PUSH2 0x8D0 JUMP JUMPDEST POP POP POP POP POP JUMP JUMPDEST CALLVALUE DUP1 ISZERO PUSH2 0x113 JUMPI PUSH0 PUSH0 REVERT JUMPDEST POP PUSH0 SLOAD PUSH1 0x1 PUSH1 0x1 PUSH1 0xA0 SHL SUB AND JUMPDEST PUSH1 0x40 MLOAD PUSH1 0x1 PUSH1 0x1 PUSH1 0xA0 SHL SUB SWAP1 SWAP2 AND DUP2 MSTORE PUSH1 0x20 ADD PUSH2 0xCA JUMP JUMPDEST CALLVALUE DUP1 ISZERO PUSH2 0x143 JUMPI PUSH0 PUSH0 REVERT JUMPDEST POP PUSH2 0x1C4 PUSH2 0x152 CALLDATASIZE PUSH1 0x4 PUSH2 0x97E JUMP JUMPDEST PUSH1 0x40 DUP1 MLOAD ADDRESS PUSH1 0x60 SWAP1 DUP2 SHL PUSH12 0xFFFFFFFFFFFFFFFFFFFFFFFF NOT AND PUSH1 0x20 DUP4 ADD MSTORE PUSH1 0x80 SWAP7 DUP8 SHL PUSH1 0x1 PUSH1 0x1 PUSH1 0x80 SHL SUB NOT SWAP1 DUP2 AND PUSH1 0x34 DUP5 ADD MSTORE SWAP6 SWAP1 SWAP7 SHL SWAP1 SWAP5 AND PUSH1 0x44 DUP6 ADD MSTORE PUSH1 0xD0 SWAP3 DUP4 SHL PUSH1 0x1 PUSH1 0x1 PUSH1 0xD0 SHL SUB NOT SWAP1 DUP2 AND PUSH1 0x54 DUP7 ADD MSTORE SWAP2 SWAP1 SWAP3 SHL AND PUSH1 0x5A DUP4 ADD MSTORE DUP1 MLOAD DUP1 DUP4 SUB DUP3 ADD DUP2 MSTORE SWAP3 SWAP1 SWAP2 ADD SWAP1 MSTORE SWAP1 JUMP JUMPDEST PUSH1 0x40 MLOAD PUSH2 0xCA SWAP2 SWAP1 PUSH2 0x9C1 JUMP JUMPDEST CALLVALUE DUP1 ISZERO PUSH2 0x1DC JUMPI PUSH0 PUSH0 REVERT JUMPDEST POP PUSH2 0x9B PUSH2 0x1EB CALLDATASIZE PUSH1 0x4 PUSH2 0x9F0 JUMP JUMPDEST PUSH2 0x523 JUMP JUMPDEST CALLVALUE DUP1 ISZERO PUSH2 0x1FB JUMPI PUSH0 PUSH0 REVERT JUMPDEST POP PUSH2 0x120 PUSH32 0x0 DUP2 JUMP JUMPDEST CALLVALUE DUP1 ISZERO PUSH2 0x22E JUMPI PUSH0 PUSH0 REVERT JUMPDEST POP PUSH2 0x251 PUSH2 0x23D CALLDATASIZE PUSH1 0x4 PUSH2 0xA29 JUMP JUMPDEST PUSH1 0x1 PUSH1 0x20 MSTORE PUSH0 SWAP1 DUP2 MSTORE PUSH1 0x40 SWAP1 KECCAK256 SLOAD PUSH1 0xFF AND DUP2 JUMP JUMPDEST PUSH1 0x40 MLOAD SWAP1 ISZERO ISZERO DUP2 MSTORE PUSH1 0x20 ADD PUSH2 0xCA JUMP JUMPDEST CALLVALUE DUP1 ISZERO PUSH2 0x26C JUMPI PUSH0 PUSH0 REVERT JUMPDEST POP PUSH2 0x9B PUSH2 0x27B CALLDATASIZE PUSH1 0x4 PUSH2 0xA29 JUMP JUMPDEST PUSH2 0x589 JUMP JUMPDEST PUSH1 0x40 MLOAD PUSH4 0xB760FAF9 PUSH1 0xE0 SHL DUP2 MSTORE ADDRESS PUSH1 0x4 DUP3 ADD MSTORE PUSH32 0x0 PUSH1 0x1 PUSH1 0x1 PUSH1 0xA0 SHL SUB AND SWAP1 PUSH4 0xB760FAF9 SWAP1 CALLVALUE SWAP1 PUSH1 0x24 ADD PUSH0 PUSH1 0x40 MLOAD DUP1 DUP4 SUB DUP2 DUP6 DUP9 DUP1 EXTCODESIZE ISZERO DUP1 ISZERO PUSH2 0x2E0 JUMPI PUSH0 PUSH0 REVERT JUMPDEST POP GAS CALL ISZERO DUP1 ISZERO PUSH2 0x2F2 JUMPI RETURNDATASIZE PUSH0 PUSH0 RETURNDATACOPY RETURNDATASIZE PUSH0 REVERT JUMPDEST POP POP PUSH1 0x40 MLOAD CALLVALUE DUP2 MSTORE CALLER SWAP4 POP PUSH32 0x543BA50A5EEC5E6178218E364B1D0F396157B3C8FA278522C2CB7FD99407D474 SWAP3 POP PUSH1 0x20 ADD SWAP1 POP PUSH1 0x40 MLOAD DUP1 SWAP2 SUB SWAP1 LOG2 JUMP JUMPDEST PUSH1 0x60 PUSH0 DUP1 DUP1 DUP1 PUSH2 0x34A PUSH2 0x345 PUSH1 0xE0 DUP11 ADD DUP11 PUSH2 0xA42 JUMP JUMPDEST PUSH2 0x5C6 JUMP JUMPDEST SWAP2 SWAP5 POP SWAP3 POP SWAP1 POP PUSH1 0x1 PUSH1 0x1 PUSH1 0xA0 SHL SUB DUP4 AND ADDRESS EQ PUSH2 0x3AE JUMPI PUSH1 0x40 MLOAD PUSH3 0x461BCD PUSH1 0xE5 SHL DUP2 MSTORE PUSH1 0x20 PUSH1 0x4 DUP3 ADD MSTORE PUSH1 0x1D PUSH1 0x24 DUP3 ADD MSTORE PUSH32 0x4141393320696E76616C6964207061796D6173746572416E6444617461000000 PUSH1 0x44 DUP3 ADD MSTORE PUSH1 0x64 ADD JUMPDEST PUSH1 0x40 MLOAD DUP1 SWAP2 SUB SWAP1 REVERT JUMPDEST PUSH0 PUSH2 0x3C4 PUSH2 0x3BF PUSH1 0x60 DUP12 ADD DUP12 PUSH2 0xA42 JUMP JUMPDEST PUSH2 0x636 JUMP JUMPDEST PUSH1 0x1 PUSH1 0x1 PUSH1 0xA0 SHL SUB DUP2 AND PUSH0 SWAP1 DUP2 MSTORE PUSH1 0x1 PUSH1 0x20 MSTORE PUSH1 0x40 SWAP1 KECCAK256 SLOAD SWAP1 SWAP2 POP PUSH1 0xFF AND PUSH2 0x42E JUMPI PUSH1 0x40 MLOAD PUSH3 0x461BCD PUSH1 0xE5 SHL DUP2 MSTORE PUSH1 0x20 PUSH1 0x4 DUP3 ADD MSTORE PUSH1 0x1F PUSH1 0x24 DUP3 ADD MSTORE PUSH32 0x5061796D61737465723A20746172676574206E6F7420737570706F7274656400 PUSH1 0x44 DUP3 ADD MSTORE PUSH1 0x64 ADD PUSH2 0x3A5 JUMP JUMPDEST PUSH0 DUP1 PUSH2 0x445 PUSH2 0x440 PUSH1 0xE0 DUP14 ADD DUP14 PUSH2 0xA42 JUMP JUMPDEST PUSH2 0x6B5 JUMP JUMPDEST SWAP2 POP SWAP2 POP DUP1 PUSH6 0xFFFFFFFFFFFF AND TIMESTAMP LT ISZERO PUSH2 0x498 JUMPI PUSH1 0x40 MLOAD PUSH3 0x461BCD PUSH1 0xE5 SHL DUP2 MSTORE PUSH1 0x20 PUSH1 0x4 DUP3 ADD MSTORE PUSH1 0x14 PUSH1 0x24 DUP3 ADD MSTORE PUSH20 0x5061796D61737465723A20746F6F206561726C79 PUSH1 0x60 SHL PUSH1 0x44 DUP3 ADD MSTORE PUSH1 0x64 ADD PUSH2 0x3A5 JUMP JUMPDEST DUP2 PUSH6 0xFFFFFFFFFFFF AND TIMESTAMP GT ISZERO PUSH2 0x4E6 JUMPI PUSH1 0x40 MLOAD PUSH3 0x461BCD PUSH1 0xE5 SHL DUP2 MSTORE PUSH1 0x20 PUSH1 0x4 DUP3 ADD MSTORE PUSH1 0x13 PUSH1 0x24 DUP3 ADD MSTORE PUSH19 0x5061796D61737465723A20746F6F206C617465 PUSH1 0x68 SHL PUSH1 0x44 DUP3 ADD MSTORE PUSH1 0x64 ADD PUSH2 0x3A5 JUMP JUMPDEST PUSH2 0x4F1 PUSH0 DUP4 DUP4 PUSH2 0x779 JUMP JUMPDEST PUSH1 0x40 DUP1 MLOAD PUSH1 0x20 DUP2 ADD SWAP1 SWAP2 MSTORE PUSH0 DUP2 MSTORE SWAP13 SWAP1 SWAP12 POP SWAP10 POP POP POP POP POP POP POP POP POP POP JUMP JUMPDEST PUSH2 0x518 PUSH2 0x7B7 JUMP JUMPDEST PUSH2 0x521 PUSH0 PUSH2 0x7E3 JUMP JUMPDEST JUMP JUMPDEST PUSH2 0x52B PUSH2 0x7B7 JUMP JUMPDEST PUSH1 0x1 PUSH1 0x1 PUSH1 0xA0 SHL SUB DUP3 AND PUSH0 DUP2 DUP2 MSTORE PUSH1 0x1 PUSH1 0x20 SWAP1 DUP2 MSTORE PUSH1 0x40 SWAP2 DUP3 SWAP1 KECCAK256 DUP1 SLOAD PUSH1 0xFF NOT AND DUP6 ISZERO ISZERO SWAP1 DUP2 OR SWAP1 SWAP2 SSTORE SWAP2 MLOAD SWAP2 DUP3 MSTORE PUSH32 0xE5239967F86BDFEBD2052A7D2539A8359F2CDEFACFBDEB04BDD72E854C994553 SWAP2 ADD PUSH1 0x40 MLOAD DUP1 SWAP2 SUB SWAP1 LOG2 POP POP JUMP JUMPDEST PUSH2 0x591 PUSH2 0x7B7 JUMP JUMPDEST PUSH1 0x1 PUSH1 0x1 PUSH1 0xA0 SHL SUB DUP2 AND PUSH2 0x5BA JUMPI PUSH1 0x40 MLOAD PUSH4 0x1E4FBDF7 PUSH1 0xE0 SHL DUP2 MSTORE PUSH0 PUSH1 0x4 DUP3 ADD MSTORE PUSH1 0x24 ADD PUSH2 0x3A5 JUMP JUMPDEST PUSH2 0x5C3 DUP2 PUSH2 0x7E3 JUMP JUMPDEST POP JUMP JUMPDEST PUSH0 DUP1 DUP1 PUSH2 0x5D6 PUSH1 0x14 DUP3 DUP7 DUP9 PUSH2 0xA8C JUMP JUMPDEST PUSH2 0x5DF SWAP2 PUSH2 0xAB3 JUMP JUMPDEST PUSH1 0x60 SHR PUSH2 0x5F0 PUSH1 0x24 PUSH1 0x14 DUP8 DUP10 PUSH2 0xA8C JUMP JUMPDEST PUSH2 0x5F9 SWAP2 PUSH2 0xB00 JUMP JUMPDEST PUSH1 0x80 SHR PUSH2 0x60A PUSH1 0x34 PUSH1 0x24 DUP9 DUP11 PUSH2 0xA8C JUMP JUMPDEST PUSH2 0x613 SWAP2 PUSH2 0xB00 JUMP JUMPDEST SWAP2 SWAP5 POP PUSH16 0xFFFFFFFFFFFFFFFFFFFFFFFFFFFFFFFF AND SWAP3 POP PUSH1 0x80 SHR SWAP1 POP SWAP3 POP SWAP3 POP SWAP3 JUMP JUMPDEST PUSH0 PUSH1 0x14 DUP3 LT ISZERO PUSH2 0x693 JUMPI PUSH1 0x40 MLOAD PUSH3 0x461BCD PUSH1 0xE5 SHL DUP2 MSTORE PUSH1 0x20 PUSH1 0x4 DUP3 ADD MSTORE PUSH1 0x22 PUSH1 0x24 DUP3 ADD MSTORE PUSH32 0x5061796D61737465723A20696E76616C69642063616C6C44617461206C656E67 PUSH1 0x44 DUP3 ADD MSTORE PUSH2 0xE8D PUSH1 0xF3 SHL PUSH1 0x64 DUP3 ADD MSTORE PUSH1 0x84 ADD PUSH2 0x3A5 JUMP JUMPDEST PUSH2 0x6A0 PUSH1 0x14 PUSH0 DUP5 DUP7 PUSH2 0xA8C JUMP JUMPDEST PUSH2 0x6A9 SWAP2 PUSH2 0xAB3 JUMP JUMPDEST PUSH1 0x60 SHR SWAP1 POP JUMPDEST SWAP3 SWAP2 POP POP JUMP JUMPDEST PUSH0 DUP1 PUSH2 0x6C3 PUSH1 0x34 PUSH1 0xC PUSH2 0xB36 JUMP JUMPDEST DUP4 LT ISZERO PUSH2 0x712 JUMPI PUSH1 0x40 MLOAD PUSH3 0x461BCD PUSH1 0xE5 SHL DUP2 MSTORE PUSH1 0x20 PUSH1 0x4 DUP3 ADD MSTORE PUSH1 0x1C PUSH1 0x24 DUP3 ADD MSTORE PUSH32 0x5061796D61737465723A20696E76616C69642074696D65206461746100000000 PUSH1 0x44 DUP3 ADD MSTORE PUSH1 0x64 ADD PUSH2 0x3A5 JUMP JUMPDEST DUP4 PUSH1 0x34 DUP5 PUSH2 0x721 DUP3 PUSH1 0x6 PUSH2 0xB36 JUMP JUMPDEST SWAP3 PUSH2 0x72E SWAP4 SWAP3 SWAP2 SWAP1 PUSH2 0xA8C JUMP JUMPDEST PUSH2 0x737 SWAP2 PUSH2 0xB55 JUMP JUMPDEST PUSH1 0xD0 SHR SWAP2 POP DUP4 DUP4 PUSH2 0x74A PUSH1 0x34 PUSH1 0x6 PUSH2 0xB36 JUMP JUMPDEST SWAP1 PUSH2 0x757 PUSH1 0x34 PUSH1 0xC PUSH2 0xB36 JUMP JUMPDEST SWAP3 PUSH2 0x764 SWAP4 SWAP3 SWAP2 SWAP1 PUSH2 0xA8C JUMP JUMPDEST PUSH2 0x76D SWAP2 PUSH2 0xB55 JUMP JUMPDEST PUSH1 0xD0 SHR SWAP1 POP SWAP3 POP SWAP3 SWAP1 POP JUMP JUMPDEST PUSH0 PUSH1 0x90 DUP5 PUSH2 0x787 JUMPI PUSH0 PUSH2 0x78A JUMP JUMPDEST PUSH1 0x1 JUMPDEST PUSH1 0xFF AND SWAP1 SHL PUSH1 0xFF AND PUSH1 0x60 DUP4 PUSH6 0xFFFFFFFFFFFF AND SWAP1 SHL PUSH1 0x30 DUP6 PUSH6 0xFFFFFFFFFFFF AND SWAP1 SHL OR OR SWAP1 POP SWAP4 SWAP3 POP POP POP JUMP JUMPDEST PUSH0 SLOAD PUSH1 0x1 PUSH1 0x1 PUSH1 0xA0 SHL SUB AND CALLER EQ PUSH2 0x521 JUMPI PUSH1 0x40 MLOAD PUSH4 0x118CDAA7 PUSH1 0xE0 SHL DUP2 MSTORE CALLER PUSH1 0x4 DUP3 ADD MSTORE PUSH1 0x24 ADD PUSH2 0x3A5 JUMP JUMPDEST PUSH0 DUP1 SLOAD PUSH1 0x1 PUSH1 0x1 PUSH1 0xA0 SHL SUB DUP4 DUP2 AND PUSH1 0x1 PUSH1 0x1 PUSH1 0xA0 SHL SUB NOT DUP4 AND DUP2 OR DUP5 SSTORE PUSH1 0x40 MLOAD SWAP2 SWAP1 SWAP3 AND SWAP3 DUP4 SWAP2 PUSH32 0x8BE0079C531659141344CD1FD0A4F28419497F9722A3DAAFE3B4186F6B6457E0 SWAP2 SWAP1 LOG3 POP POP JUMP JUMPDEST PUSH0 PUSH0 PUSH0 PUSH1 0x60 DUP5 DUP7 SUB SLT ISZERO PUSH2 0x844 JUMPI PUSH0 PUSH0 REVERT JUMPDEST DUP4 CALLDATALOAD PUSH8 0xFFFFFFFFFFFFFFFF DUP2 GT ISZERO PUSH2 0x85A JUMPI PUSH0 PUSH0 REVERT JUMPDEST DUP5 ADD PUSH2 0x120 DUP2 DUP8 SUB SLT ISZERO PUSH2 0x86C JUMPI PUSH0 PUSH0 REVERT JUMPDEST SWAP6 PUSH1 0x20 DUP6 ADD CALLDATALOAD SWAP6 POP PUSH1 0x40 SWAP1 SWAP5 ADD CALLDATALOAD SWAP4 SWAP3 POP POP POP JUMP JUMPDEST PUSH0 DUP2 MLOAD DUP1 DUP5 MSTORE DUP1 PUSH1 0x20 DUP5 ADD PUSH1 0x20 DUP7 ADD MCOPY PUSH0 PUSH1 0x20 DUP3 DUP7 ADD ADD MSTORE PUSH1 0x20 PUSH1 0x1F NOT PUSH1 0x1F DUP4 ADD AND DUP6 ADD ADD SWAP2 POP POP SWAP3 SWAP2 POP POP JUMP JUMPDEST PUSH1 0x40 DUP2 MSTORE PUSH0 PUSH2 0x8C1 PUSH1 0x40 DUP4 ADD DUP6 PUSH2 0x881 JUMP JUMPDEST SWAP1 POP DUP3 PUSH1 0x20 DUP4 ADD MSTORE SWAP4 SWAP3 POP POP POP JUMP JUMPDEST PUSH0 PUSH0 PUSH0 PUSH0 PUSH0 PUSH1 0x80 DUP7 DUP9 SUB SLT ISZERO PUSH2 0x8E4 JUMPI PUSH0 PUSH0 REVERT JUMPDEST DUP6 CALLDATALOAD PUSH1 0x3 DUP2 LT PUSH2 0x8F2 JUMPI PUSH0 PUSH0 REVERT JUMPDEST SWAP5 POP PUSH1 0x20 DUP7 ADD CALLDATALOAD PUSH8 0xFFFFFFFFFFFFFFFF DUP2 GT ISZERO PUSH2 0x90D JUMPI PUSH0 PUSH0 REVERT JUMPDEST DUP7 ADD PUSH1 0x1F DUP2 ADD DUP9 SGT PUSH2 0x91D JUMPI PUSH0 PUSH0 REVERT JUMPDEST DUP1 CALLDATALOAD PUSH8 0xFFFFFFFFFFFFFFFF DUP2 GT ISZERO PUSH2 0x933 JUMPI PUSH0 PUSH0 REVERT JUMPDEST DUP9 PUSH1 0x20 DUP3 DUP5 ADD ADD GT ISZERO PUSH2 0x944 JUMPI PUSH0 PUSH0 REVERT JUMPDEST SWAP6 SWAP9 PUSH1 0x20 SWAP2 SWAP1 SWAP2 ADD SWAP8 POP SWAP5 SWAP6 PUSH1 0x40 DUP2 ADD CALLDATALOAD SWAP6 PUSH1 0x60 SWAP1 SWAP2 ADD CALLDATALOAD SWAP5 POP SWAP3 POP POP POP JUMP JUMPDEST DUP1 CALLDATALOAD PUSH6 0xFFFFFFFFFFFF DUP2 AND DUP2 EQ PUSH2 0x979 JUMPI PUSH0 PUSH0 REVERT JUMPDEST SWAP2 SWAP1 POP JUMP JUMPDEST PUSH0 PUSH0 PUSH0 PUSH0 PUSH1 0x80 DUP6 DUP8 SUB SLT ISZERO PUSH2 0x991 JUMPI PUSH0 PUSH0 REVERT JUMPDEST DUP5 CALLDATALOAD SWAP4 POP PUSH1 0x20 DUP6 ADD CALLDATALOAD SWAP3 POP PUSH2 0x9A8 PUSH1 0x40 DUP7 ADD PUSH2 0x964 JUMP JUMPDEST SWAP2 POP PUSH2 0x9B6 PUSH1 0x60 DUP7 ADD PUSH2 0x964 JUMP JUMPDEST SWAP1 POP SWAP3 SWAP6 SWAP2 SWAP5 POP SWAP3 POP JUMP JUMPDEST PUSH1 0x20 DUP2 MSTORE PUSH0 PUSH2 0x9D3 PUSH1 0x20 DUP4 ADD DUP5 PUSH2 0x881 JUMP JUMPDEST SWAP4 SWAP3 POP POP POP JUMP JUMPDEST DUP1 CALLDATALOAD PUSH1 0x1 PUSH1 0x1 PUSH1 0xA0 SHL SUB DUP2 AND DUP2 EQ PUSH2 0x979 JUMPI PUSH0 PUSH0 REVERT JUMPDEST PUSH0 PUSH0 PUSH1 0x40 DUP4 DUP6 SUB SLT ISZERO PUSH2 0xA01 JUMPI PUSH0 PUSH0 REVERT JUMPDEST PUSH2 0xA0A DUP4 PUSH2 0x9DA JUMP JUMPDEST SWAP2 POP PUSH1 0x20 DUP4 ADD CALLDATALOAD DUP1 ISZERO ISZERO DUP2 EQ PUSH2 0xA1E JUMPI PUSH0 PUSH0 REVERT JUMPDEST DUP1 SWAP2 POP POP SWAP3 POP SWAP3 SWAP1 POP JUMP JUMPDEST PUSH0 PUSH1 0x20 DUP3 DUP5 SUB SLT ISZERO PUSH2 0xA39 JUMPI PUSH0 PUSH0 REVERT JUMPDEST PUSH2 0x9D3 DUP3 PUSH2 0x9DA JUMP JUMPDEST PUSH0 PUSH0 DUP4 CALLDATALOAD PUSH1 0x1E NOT DUP5 CALLDATASIZE SUB ADD DUP2 SLT PUSH2 0xA57 JUMPI PUSH0 PUSH0 REVERT JUMPDEST DUP4 ADD DUP1 CALLDATALOAD SWAP2 POP PUSH8 0xFFFFFFFFFFFFFFFF DUP3 GT ISZERO PUSH2 0xA71 JUMPI PUSH0 PUSH0 REVERT JUMPDEST PUSH1 0x20 ADD SWAP2 POP CALLDATASIZE DUP2 SWAP1 SUB DUP3 SGT ISZERO PUSH2 0xA85 JUMPI PUSH0 PUSH0 REVERT JUMPDEST SWAP3 POP SWAP3 SWAP1 POP JUMP JUMPDEST PUSH0 PUSH0 DUP6 DUP6 GT ISZERO PUSH2 0xA9A JUMPI PUSH0 PUSH0 REVERT JUMPDEST DUP4 DUP7 GT ISZERO PUSH2 0xAA6 JUMPI PUSH0 PUSH0 REVERT JUMPDEST POP POP DUP3 ADD SWAP4 SWAP2 SWAP1 SWAP3 SUB SWAP2 POP JUMP JUMPDEST DUP1 CALLDATALOAD PUSH12 0xFFFFFFFFFFFFFFFFFFFFFFFF NOT DUP2 AND SWAP1 PUSH1 0x14 DUP5 LT ISZERO PUSH2 0xAF9 JUMPI PUSH12 0xFFFFFFFFFFFFFFFFFFFFFFFF NOT PUSH12 0xFFFFFFFFFFFFFFFFFFFFFFFF NOT DUP6 PUSH1 0x14 SUB PUSH1 0x3 SHL SHL DUP3 AND AND SWAP2 POP JUMPDEST POP SWAP3 SWAP2 POP POP JUMP JUMPDEST DUP1 CALLDATALOAD PUSH1 0x1 PUSH1 0x1 PUSH1 0x80 SHL SUB NOT DUP2 AND SWAP1 PUSH1 0x10 DUP5 LT ISZERO PUSH2 0xAF9 JUMPI PUSH1 0x1 PUSH1 0x1 PUSH1 0x80 SHL SUB NOT PUSH1 0x10 SWAP5 SWAP1 SWAP5 SUB PUSH1 0x3 SHL DUP5 SWAP1 SHL AND SWAP1 SWAP3 AND SWAP3 SWAP2 POP POP JUMP JUMPDEST DUP1 DUP3 ADD DUP1 DUP3 GT ISZERO PUSH2 0x6AF JUMPI PUSH4 0x4E487B71 PUSH1 0xE0 SHL PUSH0 MSTORE PUSH1 0x11 PUSH1 0x4 MSTORE PUSH1 0x24 PUSH0 REVERT JUMPDEST DUP1 CALLDATALOAD PUSH1 0x1 PUSH1 0x1 PUSH1 0xD0 SHL SUB NOT DUP2 AND SWAP1 PUSH1 0x6 DUP5 LT ISZERO PUSH2 0xAF9 JUMPI PUSH1 0x1 PUSH1 0x1 PUSH1 0xD0 SHL SUB NOT PUSH1 0x6 SWAP5 SWAP1 SWAP5 SUB PUSH1 0x3 SHL DUP5 SWAP1 SHL AND SWAP1 SWAP3 AND SWAP3 SWAP2 POP POP JUMP INVALID LOG2 PUSH5 0x6970667358 0x22 SLT KECCAK256 0x29 PUSH15 0xEAC24636EA119210F213907B5E4A2B 0xE5 0xBE SWAP8 CHAINID 0xDA 0xCA 0xB2 DUP1 DELEGATECALL 0xE9 SWAP4 SWAP9 BASEFEE 0xAA SWAP11 PUSH5 0x736F6C6343 STOP ADDMOD SHR STOP CALLER "},"methodIdentifiers":{"createPaymasterAndData(uint256,uint256,uint48,uint48)":"8f8780a4","depositToEntryPoint()":"1b3ba101","entryPoint()":"b0d691fe","owner()":"8da5cb5b","postOp(uint8,bytes,uint256,uint256)":"7c627b21","renounceOwnership()":"715018a6","setSupportedTarget(address,bool)":"a19f212f","supportedTargets(address)":"dc69c06f","transferOwnership(address)":"f2fde38b","validatePaymasterUserOp((address,uint256,bytes,bytes,bytes32,uint256,bytes32,bytes,bytes),bytes32,uint256)":"52b7512c"}}}}}