{
  "_format": "hh-sol-artifact-1",
  "contractName": "Executor",
  "sourceName": "contracts/Executor.sol",
  "abi": [
    {
      "inputs": [
        {
          "internalType": "address",
          "name": "initialOwner",
          "type": "address"
        }
      ],
      "stateMutability": "nonpayable",
      "type": "constructor"
    },
    {
      "inputs": [
        {
          "internalType": "address",
          "name": "owner",
          "type": "address"
        }
      ],
      "name": "OwnableInvalidOwner",
      "type": "error"
    },
    {
      "inputs": [
        {
          "internalType": "address",
          "name": "account",
          "type": "address"
        }
      ],
      "name": "OwnableUnauthorizedAccount",
      "type": "error"
    },
    {
      "anonymous": false,
      "inputs": [
        {
          "indexed": true,
          "internalType": "address",
          "name": "previousOwner",
          "type": "address"
        },
        {
          "indexed": true,
          "internalType": "address",
          "name": "newOwner",
          "type": "address"
        }
      ],
      "name": "OwnershipTransferred",
      "type": "event"
    },
    {
      "inputs": [
        {
          "internalType": "address",
          "name": "target",
          "type": "address"
        },
        {
          "internalType": "bytes",
          "name": "callData",
          "type": "bytes"
        }
      ],
      "name": "execute",
      "outputs": [],
      "stateMutability": "nonpayable",
      "type": "function"
    },
    {
      "inputs": [],
      "name": "owner",
      "outputs": [
        {
          "internalType": "address",
          "name": "",
          "type": "address"
        }
      ],
      "stateMutability": "view",
      "type": "function"
    },
    {
      "inputs": [],
      "name": "renounceOwnership",
      "outputs": [],
      "stateMutability": "nonpayable",
      "type": "function"
    },
    {
      "inputs": [
        {
          "internalType": "address",
          "name": "newOwner",
          "type": "address"
        }
      ],
      "name": "transferOwnership",
      "outputs": [],
      "stateMutability": "nonpayable",
      "type": "function"
    }
  ],
  "bytecode": "0x6080604052348015600e575f5ffd5b50604051610463380380610463833981016040819052602b9160b4565b806001600160a01b038116605857604051631e4fbdf760e01b81525f600482015260240160405180910390fd5b605f816065565b505060df565b5f80546001600160a01b038381166001600160a01b0319831681178455604051919092169283917f8be0079c531659141344cd1fd0a4f28419497f9722a3daafe3b4186f6b6457e09190a35050565b5f6020828403121560c3575f5ffd5b81516001600160a01b038116811460d8575f5ffd5b9392505050565b610377806100ec5f395ff3fe608060405234801561000f575f5ffd5b506004361061004a575f3560e01c80631cff79cd1461004e578063715018a6146100635780638da5cb5b1461006b578063f2fde38b14610089575b5f5ffd5b61006161005c366004610247565b61009c565b005b61006161014d565b5f54604080516001600160a01b039092168252519081900360200190f35b61006161009736600461030b565b610160565b6100a461019d565b5f826001600160a01b0316826040516100bd919061032b565b5f604051808303815f865af19150503d805f81146100f6576040519150601f19603f3d011682016040523d82523d5f602084013e6100fb565b606091505b50509050806101485760405162461bcd60e51b8152602060048201526014602482015273115e1d195c9b985b0818d85b1b0819985a5b195960621b60448201526064015b60405180910390fd5b505050565b61015561019d565b61015e5f6101c9565b565b61016861019d565b6001600160a01b03811661019157604051631e4fbdf760e01b81525f600482015260240161013f565b61019a816101c9565b50565b5f546001600160a01b0316331461015e5760405163118cdaa760e01b815233600482015260240161013f565b5f80546001600160a01b038381166001600160a01b0319831681178455604051919092169283917f8be0079c531659141344cd1fd0a4f28419497f9722a3daafe3b4186f6b6457e09190a35050565b80356001600160a01b038116811461022e575f5ffd5b919050565b634e487b7160e01b5f52604160045260245ffd5b5f5f60408385031215610258575f5ffd5b61026183610218565b9150602083013567ffffffffffffffff81111561027c575f5ffd5b8301601f8101851361028c575f5ffd5b803567ffffffffffffffff8111156102a6576102a6610233565b604051601f8201601f19908116603f0116810167ffffffffffffffff811182821017156102d5576102d5610233565b6040528181528282016020018710156102ec575f5ffd5b816020840160208301375f602083830101528093505050509250929050565b5f6020828403121561031b575f5ffd5b61032482610218565b9392505050565b5f82518060208501845e5f92019182525091905056fea26469706673582212208e729c96e5ccaa156b227b1326c2d37bc44f9cb1b8799c470597a9b91e883b9a64736f6c634300081c0033",
  "linkReferences": {},
  "deployedLinkReferences": {}
}