{
  "_format": "hh-sol-artifact-1",
  "contractName": "TestAccount",
  "sourceName": "contracts/TestAccount.sol",
  "abi": [
    {
      "inputs": [
        {
          "internalType": "contract IEntryPoint",
          "name": "_entryPoint",
          "type": "address"
        },
        {
          "internalType": "address",
          "name": "_owner",
          "type": "address"
        }
      ],
      "stateMutability": "nonpayable",
      "type": "constructor"
    },
    {
      "inputs": [],
      "name": "ECDSAInvalidSignature",
      "type": "error"
    },
    {
      "inputs": [
        {
          "internalType": "uint256",
          "name": "length",
          "type": "uint256"
        }
      ],
      "name": "ECDSAInvalidSignatureLength",
      "type": "error"
    },
    {
      "inputs": [
        {
          "internalType": "bytes32",
          "name": "s",
          "type": "bytes32"
        }
      ],
      "name": "ECDSAInvalidSignatureS",
      "type": "error"
    },
    {
      "anonymous": false,
      "inputs": [
        {
          "indexed": true,
          "internalType": "contract IEntryPoint",
          "name": "entryPoint",
          "type": "address"
        },
        {
          "indexed": true,
          "internalType": "address",
          "name": "owner",
          "type": "address"
        }
      ],
      "name": "AccountInitialized",
      "type": "event"
    },
    {
      "inputs": [],
      "name": "entryPoint",
      "outputs": [
        {
          "internalType": "contract IEntryPoint",
          "name": "",
          "type": "address"
        }
      ],
      "stateMutability": "view",
      "type": "function"
    },
    {
      "inputs": [
        {
          "components": [
            {
              "internalType": "address",
              "name": "sender",
              "type": "address"
            },
            {
              "internalType": "uint256",
              "name": "nonce",
              "type": "uint256"
            },
            {
              "internalType": "bytes",
              "name": "initCode",
              "type": "bytes"
            },
            {
              "internalType": "bytes",
              "name": "callData",
              "type": "bytes"
            },
            {
              "internalType": "bytes32",
              "name": "accountGasLimits",
              "type": "bytes32"
            },
            {
              "internalType": "uint256",
              "name": "preVerificationGas",
              "type": "uint256"
            },
            {
              "internalType": "bytes32",
              "name": "gasFees",
              "type": "bytes32"
            },
            {
              "internalType": "bytes",
              "name": "paymasterAndData",
              "type": "bytes"
            },
            {
              "internalType": "bytes",
              "name": "signature",
              "type": "bytes"
            }
          ],
          "internalType": "struct PackedUserOperation",
          "name": "userOp",
          "type": "tuple"
        },
        {
          "internalType": "bytes32",
          "name": "userOpHash",
          "type": "bytes32"
        }
      ],
      "name": "executeUserOp",
      "outputs": [],
      "stateMutability": "nonpayable",
      "type": "function"
    },
    {
      "inputs": [],
      "name": "owner",
      "outputs": [
        {
          "internalType": "address",
          "name": "",
          "type": "address"
        }
      ],
      "stateMutability": "view",
      "type": "function"
    },
    {
      "inputs": [
        {
          "components": [
            {
              "internalType": "address",
              "name": "sender",
              "type": "address"
            },
            {
              "internalType": "uint256",
              "name": "nonce",
              "type": "uint256"
            },
            {
              "internalType": "bytes",
              "name": "initCode",
              "type": "bytes"
            },
            {
              "internalType": "bytes",
              "name": "callData",
              "type": "bytes"
            },
            {
              "internalType": "bytes32",
              "name": "accountGasLimits",
              "type": "bytes32"
            },
            {
              "internalType": "uint256",
              "name": "preVerificationGas",
              "type": "uint256"
            },
            {
              "internalType": "bytes32",
              "name": "gasFees",
              "type": "bytes32"
            },
            {
              "internalType": "bytes",
              "name": "paymasterAndData",
              "type": "bytes"
            },
            {
              "internalType": "bytes",
              "name": "signature",
              "type": "bytes"
            }
          ],
          "internalType": "struct PackedUserOperation",
          "name": "userOp",
          "type": "tuple"
        },
        {
          "internalType": "bytes32",
          "name": "userOpHash",
          "type": "bytes32"
        },
        {
          "internalType": "uint256",
          "name": "missingAccountFunds",
          "type": "uint256"
        }
      ],
      "name": "validateUserOp",
      "outputs": [
        {
          "internalType": "uint256",
          "name": "validationData",
          "type": "uint256"
        }
      ],
      "stateMutability": "nonpayable",
      "type": "function"
    },
    {
      "stateMutability": "payable",
      "type": "receive"
    }
  ],
  "bytecode": "0x60a060405234801561000f575f5ffd5b5060405161090938038061090983398101604081905261002e91610098565b6001600160a01b0382811660808190525f80546001600160a01b03191692841692831781556040517f526ffefac8167421b9048ae3377810715d834479565b0182ea4155f0efa4c3809190a350506100d0565b6001600160a01b0381168114610095575f5ffd5b50565b5f5f604083850312156100a9575f5ffd5b82516100b481610081565b60208401519092506100c581610081565b809150509250929050565b6080516108146100f55f395f818160e601528181610114015261024601526108145ff3fe608060405260043610610041575f3560e01c806319822f7c1461004c5780638da5cb5b1461007e5780638dd7712f146100b4578063b0d691fe146100d5575f5ffd5b3661004857005b5f5ffd5b348015610057575f5ffd5b5061006b610066366004610671565b610108565b6040519081526020015b60405180910390f35b348015610089575f5ffd5b505f5461009c906001600160a01b031681565b6040516001600160a01b039091168152602001610075565b3480156100bf575f5ffd5b506100d36100ce3660046106bb565b61023b565b005b3480156100e0575f5ffd5b5061009c7f000000000000000000000000000000000000000000000000000000000000000081565b5f336001600160a01b037f000000000000000000000000000000000000000000000000000000000000000016146101805760405162461bcd60e51b81526020600482015260176024820152761858d8dbdd5b9d0e881b9bdd08115b9d1c9e541bda5b9d604a1b60448201526064015b60405180910390fd5b61018a84846102c6565b90508115610234576040515f90339084908381818185875af1925050503d805f81146101d1576040519150601f19603f3d011682016040523d82523d5f602084013e6101d6565b606091505b50509050806102325760405162461bcd60e51b815260206004820152602260248201527f6163636f756e743a206661696c656420746f2066756e6420456e747279506f696044820152611b9d60f21b6064820152608401610177565b505b9392505050565b336001600160a01b037f000000000000000000000000000000000000000000000000000000000000000016146102ad5760405162461bcd60e51b81526020600482015260176024820152761858d8dbdd5b9d0e881b9bdd08115b9d1c9e541bda5b9d604a1b6044820152606401610177565b6102c26102bd60608401846106fd565b610370565b5050565b7f19457468657265756d205369676e6564204d6573736167653a0a3332000000005f908152601c829052603c81205f6103426103066101008701876106fd565b8080601f0160208091040260200160405190810160405280939291908181526020018383808284375f9201919091525086939250506104699050565b5f549091506001600160a01b038083169116146103645760019250505061036a565b5f925050505b92915050565b5f81900361037c575050565b5f61038a6014828486610747565b6103939161076e565b60601c9050365f6103a78460148188610747565b915091505f5f846001600160a01b031684846040516103c79291906107bb565b5f604051808303815f865af19150503d805f8114610400576040519150601f19603f3d011682016040523d82523d5f602084013e610405565b606091505b5091509150816104605780515f036104585760405162461bcd60e51b81526020600482015260166024820152751858d8dbdd5b9d0e8818d85b1b081c995d995c9d195960521b6044820152606401610177565b805160208201fd5b50505050505050565b5f5f5f5f6104778686610491565b92509250925061048782826104da565b5090949350505050565b5f5f5f83516041036104c8576020840151604085015160608601515f1a6104ba88828585610592565b9550955095505050506104d3565b505081515f91506002905b9250925092565b5f8260038111156104ed576104ed6107ca565b036104f6575050565b600182600381111561050a5761050a6107ca565b036105285760405163f645eedf60e01b815260040160405180910390fd5b600282600381111561053c5761053c6107ca565b0361055d5760405163fce698f760e01b815260048101829052602401610177565b6003826003811115610571576105716107ca565b036102c2576040516335e2f38360e21b815260048101829052602401610177565b5f80807f7fffffffffffffffffffffffffffffff5d576e7357a4501ddfe92f46681b20a08411156105cb57505f91506003905082610650565b604080515f808252602082018084528a905260ff891692820192909252606081018790526080810186905260019060a0016020604051602081039080840390855afa15801561061c573d5f5f3e3d5ffd5b5050604051601f1901519150506001600160a01b03811661064757505f925060019150829050610650565b92505f91508190505b9450945094915050565b5f610120828403121561066b575f5ffd5b50919050565b5f5f5f60608486031215610683575f5ffd5b833567ffffffffffffffff811115610699575f5ffd5b6106a58682870161065a565b9660208601359650604090950135949350505050565b5f5f604083850312156106cc575f5ffd5b823567ffffffffffffffff8111156106e2575f5ffd5b6106ee8582860161065a565b95602094909401359450505050565b5f5f8335601e19843603018112610712575f5ffd5b83018035915067ffffffffffffffff82111561072c575f5ffd5b602001915036819003821315610740575f5ffd5b9250929050565b5f5f85851115610755575f5ffd5b83861115610761575f5ffd5b5050820193919092039150565b80356bffffffffffffffffffffffff1981169060148410156107b4576bffffffffffffffffffffffff196bffffffffffffffffffffffff198560140360031b1b82161691505b5092915050565b818382375f9101908152919050565b634e487b7160e01b5f52602160045260245ffdfea2646970667358221220bd0eaea7e252a492d41698283e78491e706cc47abaa69998cb7c53a8d7e6696164736f6c634300081c0033",
  "linkReferences": {},
  "deployedLinkReferences": {}
}