{
  "_format": "hh-sol-artifact-1",
  "contractName": "PrivacyPool",
  "sourceName": "contracts/PrivacyPool.sol",
  "abi": [
    {
      "inputs": [
        {
          "internalType": "address",
          "name": "_verifier",
          "type": "address"
        },
        {
          "internalType": "address",
          "name": "_initialOwner",
          "type": "address"
        }
      ],
      "stateMutability": "nonpayable",
      "type": "constructor"
    },
    {
      "inputs": [
        {
          "internalType": "address",
          "name": "owner",
          "type": "address"
        }
      ],
      "name": "OwnableInvalidOwner",
      "type": "error"
    },
    {
      "inputs": [
        {
          "internalType": "address",
          "name": "account",
          "type": "address"
        }
      ],
      "name": "OwnableUnauthorizedAccount",
      "type": "error"
    },
    {
      "anonymous": false,
      "inputs": [
        {
          "indexed": true,
          "internalType": "bytes32",
          "name": "commitment",
          "type": "bytes32"
        },
        {
          "indexed": false,
          "internalType": "uint32",
          "name": "leafIndex",
          "type": "uint32"
        },
        {
          "indexed": false,
          "internalType": "uint256",
          "name": "timestamp",
          "type": "uint256"
        }
      ],
      "name": "Deposit",
      "type": "event"
    },
    {
      "anonymous": false,
      "inputs": [
        {
          "indexed": true,
          "internalType": "address",
          "name": "previousOwner",
          "type": "address"
        },
        {
          "indexed": true,
          "internalType": "address",
          "name": "newOwner",
          "type": "address"
        }
      ],
      "name": "OwnershipTransferred",
      "type": "event"
    },
    {
      "anonymous": false,
      "inputs": [
        {
          "indexed": false,
          "internalType": "bytes32",
          "name": "nullifier",
          "type": "bytes32"
        },
        {
          "indexed": false,
          "internalType": "bytes32",
          "name": "newCommitment",
          "type": "bytes32"
        },
        {
          "indexed": false,
          "internalType": "bytes32",
          "name": "tradeDataHash",
          "type": "bytes32"
        }
      ],
      "name": "Trade",
      "type": "event"
    },
    {
      "anonymous": false,
      "inputs": [
        {
          "indexed": false,
          "internalType": "address",
          "name": "to",
          "type": "address"
        },
        {
          "indexed": false,
          "internalType": "bytes32",
          "name": "nullifier",
          "type": "bytes32"
        }
      ],
      "name": "Withdrawal",
      "type": "event"
    },
    {
      "inputs": [],
      "name": "DEPOSIT_AMOUNT",
      "outputs": [
        {
          "internalType": "uint256",
          "name": "",
          "type": "uint256"
        }
      ],
      "stateMutability": "view",
      "type": "function"
    },
    {
      "inputs": [
        {
          "internalType": "bytes32",
          "name": "_commitment",
          "type": "bytes32"
        }
      ],
      "name": "deposit",
      "outputs": [],
      "stateMutability": "payable",
      "type": "function"
    },
    {
      "inputs": [],
      "name": "getRoot",
      "outputs": [
        {
          "internalType": "bytes32",
          "name": "",
          "type": "bytes32"
        }
      ],
      "stateMutability": "view",
      "type": "function"
    },
    {
      "inputs": [
        {
          "internalType": "bytes32",
          "name": "",
          "type": "bytes32"
        }
      ],
      "name": "nullifiers",
      "outputs": [
        {
          "internalType": "bool",
          "name": "",
          "type": "bool"
        }
      ],
      "stateMutability": "view",
      "type": "function"
    },
    {
      "inputs": [],
      "name": "owner",
      "outputs": [
        {
          "internalType": "address",
          "name": "",
          "type": "address"
        }
      ],
      "stateMutability": "view",
      "type": "function"
    },
    {
      "inputs": [],
      "name": "renounceOwnership",
      "outputs": [],
      "stateMutability": "nonpayable",
      "type": "function"
    },
    {
      "inputs": [
        {
          "internalType": "address",
          "name": "newOwner",
          "type": "address"
        }
      ],
      "name": "transferOwnership",
      "outputs": [],
      "stateMutability": "nonpayable",
      "type": "function"
    },
    {
      "inputs": [],
      "name": "tree",
      "outputs": [
        {
          "internalType": "contract PoseidonMerkleTree",
          "name": "",
          "type": "address"
        }
      ],
      "stateMutability": "view",
      "type": "function"
    },
    {
      "inputs": [],
      "name": "verifier",
      "outputs": [
        {
          "internalType": "address",
          "name": "",
          "type": "address"
        }
      ],
      "stateMutability": "view",
      "type": "function"
    },
    {
      "inputs": [
        {
          "internalType": "uint256[2]",
          "name": "_pA",
          "type": "uint256[2]"
        },
        {
          "internalType": "uint256[2][2]",
          "name": "_pB",
          "type": "uint256[2][2]"
        },
        {
          "internalType": "uint256[2]",
          "name": "_pC",
          "type": "uint256[2]"
        },
        {
          "internalType": "bytes32",
          "name": "_proofRoot",
          "type": "bytes32"
        },
        {
          "internalType": "bytes32",
          "name": "_nullifier",
          "type": "bytes32"
        },
        {
          "internalType": "address",
          "name": "_recipient",
          "type": "address"
        },
        {
          "internalType": "uint256",
          "name": "_amount",
          "type": "uint256"
        }
      ],
      "name": "withdraw",
      "outputs": [],
      "stateMutability": "nonpayable",
      "type": "function"
    }
  ],
  "bytecode": "0x608060405234801561000f575f5ffd5b50604051610fcd380380610fcd83398101604081905261002e91610146565b806001600160a01b03811661005c57604051631e4fbdf760e01b81525f600482015260240160405180910390fd5b610065816100cf565b50600380546001600160a01b0319166001600160a01b03841617905560405161008d9061011e565b604051809103905ff0801580156100a6573d5f5f3e3d5ffd5b50600180546001600160a01b0319166001600160a01b0392909216919091179055506101779050565b5f80546001600160a01b038381166001600160a01b0319831681178455604051919092169283917f8be0079c531659141344cd1fd0a4f28419497f9722a3daafe3b4186f6b6457e09190a35050565b61058b80610a4283390190565b80516001600160a01b0381168114610141575f5ffd5b919050565b5f5f60408385031215610157575f5ffd5b6101608361012b565b915061016e6020840161012b565b90509250929050565b6108be806101845f395ff3fe60806040526004361061008f575f3560e01c8063b214faa511610057578063b214faa514610161578063ec6925a714610174578063f2fde38b1461018f578063fa41e14d146101ae578063fd54b228146101cd575f5ffd5b80632997e86b146100935780632b7ac3f3146100d65780635ca1e1651461010d578063715018a61461012f5780638da5cb5b14610145575b5f5ffd5b34801561009e575f5ffd5b506100c16100ad3660046106de565b60026020525f908152604090205460ff1681565b60405190151581526020015b60405180910390f35b3480156100e1575f5ffd5b506003546100f5906001600160a01b031681565b6040516001600160a01b0390911681526020016100cd565b348015610118575f5ffd5b506101216101ec565b6040519081526020016100cd565b34801561013a575f5ffd5b5061014361025c565b005b348015610150575f5ffd5b505f546001600160a01b03166100f5565b61014361016f3660046106de565b61026f565b34801561017f575f5ffd5b5061012167016345785d8a000081565b34801561019a575f5ffd5b506101436101a9366004610710565b610377565b3480156101b9575f5ffd5b506101436101c8366004610746565b6103b4565b3480156101d8575f5ffd5b506001546100f5906001600160a01b031681565b60015460408051635ca1e16560e01b815290515f926001600160a01b031691635ca1e1659160048083019260209291908290030181865afa158015610233573d5f5f3e3d5ffd5b505050506040513d601f19601f8201168201806040525081019061025791906107bf565b905090565b610264610663565b61026d5f61068f565b565b67016345785d8a000034146102c45760405162461bcd60e51b8152602060048201526016602482015275125b9d985b1a590819195c1bdcda5d08185b5bdd5b9d60521b60448201526064015b60405180910390fd5b600154604051632d287e4360e01b8152600481018390525f916001600160a01b031690632d287e43906024016020604051808303815f875af115801561030c573d5f5f3e3d5ffd5b505050506040513d601f19601f8201168201806040525081019061033091906107d6565b6040805163ffffffff8316815242602082015291925083917fa945e51eec50ab98c161376f0db4cf2aeba3ec92755fe2fcd388bdbbb80ff196910160405180910390a25050565b61037f610663565b6001600160a01b0381166103a857604051631e4fbdf760e01b81525f60048201526024016102bb565b6103b18161068f565b50565b60015f9054906101000a90046001600160a01b03166001600160a01b0316635ca1e1656040518163ffffffff1660e01b8152600401602060405180830381865afa158015610404573d5f5f3e3d5ffd5b505050506040513d601f19601f8201168201806040525081019061042891906107bf565b841461046c5760405162461bcd60e51b8152602060048201526013602482015272125b9d985b1a590813595c9adb19481c9bdbdd606a1b60448201526064016102bb565b5f8381526002602052604090205460ff16156104ca5760405162461bcd60e51b815260206004820152601760248201527f4e756c6c696669657220686173206265656e207573656400000000000000000060448201526064016102bb565b6040516bffffffffffffffffffffffff19606084901b16602082015260348101829052605481018490525f9060740160408051601f198184030181528282528051602091820120908301825280835260035491516343753b4d60e01b81529093506001600160a01b03909116906343753b4d90610551908c908c908c9087906004016107f9565b602060405180830381865afa15801561056c573d5f5f3e3d5ffd5b505050506040513d601f19601f820116820180604052508101906105909190610869565b6105cc5760405162461bcd60e51b815260206004820152600d60248201526c24b73b30b634b210383937b7b360991b60448201526064016102bb565b5f85815260026020526040808220805460ff19166001179055516001600160a01b0386169185156108fc02918691818181858888f19350505050158015610615573d5f5f3e3d5ffd5b50604080516001600160a01b0386168152602081018790527f0ce490531f6c8ae2f1ff174643bc8b7ed5e52987ab50dc1e8f33655d2cd8c90b910160405180910390a1505050505050505050565b5f546001600160a01b0316331461026d5760405163118cdaa760e01b81523360048201526024016102bb565b5f80546001600160a01b038381166001600160a01b0319831681178455604051919092169283917f8be0079c531659141344cd1fd0a4f28419497f9722a3daafe3b4186f6b6457e09190a35050565b5f602082840312156106ee575f5ffd5b5035919050565b80356001600160a01b038116811461070b575f5ffd5b919050565b5f60208284031215610720575f5ffd5b610729826106f5565b9392505050565b8060408101831015610740575f5ffd5b92915050565b5f5f5f5f5f5f5f610180888a03121561075d575f5ffd5b6107678989610730565b965060c0880189811115610779575f5ffd5b6040890196506107898a82610730565b955050610100880135935061012088013592506107a961014089016106f5565b9150610160880135905092959891949750929550565b5f602082840312156107cf575f5ffd5b5051919050565b5f602082840312156107e6575f5ffd5b815163ffffffff81168114610729575f5ffd5b6101208101604086833760408201855f5b600281101561082b576040828437604092830192919091019060010161080a565b50505060408460c08401376101008201835f5b600181101561085d57815183526020928301929091019060010161083e565b50505095945050505050565b5f60208284031215610879575f5ffd5b81518015158114610729575f5ffdfea2646970667358221220a91ffccb9ceac2361157f4b2bbb91c7bbf5d335c7f7739bf883a7972933136a164736f6c634300081c00336080604052348015600e575f5ffd5b505f5b601463ffffffff82161015603e575f8063ffffffff83166014811060355760356043565b01556001016011565b506057565b634e487b7160e01b5f52603260045260245ffd5b610527806100645f395ff3fe608060405234801561000f575f5ffd5b5060043610610060575f3560e01c806329a5f2f6146100645780632d287e431461008a5780635ca1e165146100b2578063e2adba8c146100ba578063f178e47c146100c2578063fc7e9c6f146100d5575b5f5ffd5b610077610072366004610307565b6100e5565b6040519081526020015b60405180910390f35b61009d610098366004610383565b61012b565b60405163ffffffff9091168152602001610081565b61007761025a565b61009d601481565b6100776100d0366004610383565b6102b8565b60145461009d9063ffffffff1681565b80516020808301516040805180840194909452838101919091528051808403820181526060909301905281519101205f9061012590600160fe1b906103ae565b92915050565b601480545f9163ffffffff909116906101459060026104c4565b8163ffffffff16106101935760405162461bcd60e51b815260206004820152601360248201527213595c9adb19481d1c9959481a5cc8199d5b1b606a1b604482015260640160405180910390fd5b825f5b601463ffffffff8216101561022d575f8163ffffffff16601481106101bd576101bd61039a565b01545f036101e557815f8263ffffffff16601481106101de576101de61039a565b015561022d565b6102085f8263ffffffff16601481106102005761020061039a565b0154836102cd565b91505f8063ffffffff8316601481106102235761022361039a565b0155600101610196565b506102398260016104d5565b6014805463ffffffff191663ffffffff929092169190911790555092915050565b5f80805b601463ffffffff821610156102b2575f8163ffffffff16601481106102855761028561039a565b0154156102aa576102a75f8263ffffffff16601481106102005761020061039a565b91505b60010161025e565b50919050565b5f81601481106102c6575f80fd5b0154905081565b60408051808201909152828152602081018290525f906102ec906100e5565b9392505050565b634e487b7160e01b5f52604160045260245ffd5b5f60408284031215610317575f5ffd5b82601f830112610325575f5ffd5b6040516040810181811067ffffffffffffffff82111715610348576103486102f3565b806040525080604084018581111561035e575f5ffd5b845b81811015610378578035835260209283019201610360565b509195945050505050565b5f60208284031215610393575f5ffd5b5035919050565b634e487b7160e01b5f52603260045260245ffd5b5f826103c857634e487b7160e01b5f52601260045260245ffd5b500690565b634e487b7160e01b5f52601160045260245ffd5b6001815b600184111561041c57808504811115610400576104006103cd565b600184161561040e57908102905b60019390931c9280026103e5565b935093915050565b5f8261043257506001610125565b8161043e57505f610125565b8160018114610454576002811461045e5761047a565b6001915050610125565b60ff84111561046f5761046f6103cd565b50506001821b610125565b5060208310610133831016604e8410600b841016171561049d575081810a610125565b6104a95f1984846103e1565b805f19048211156104bc576104bc6103cd565b029392505050565b5f6102ec63ffffffff841683610424565b63ffffffff8181168382160190811115610125576101256103cd56fea2646970667358221220b59de0627c98d32fd9f6c7c422908886b3879a9b9184b1ab891a16320265595464736f6c634300081c0033",
  "linkReferences": {},
  "deployedLinkReferences": {}
}