{
  "_format": "hh-sol-artifact-1",
  "contractName": "PrivacyPool",
  "sourceName": "contracts/PrivacyPool.sol",
  "abi": [
    {
      "inputs": [
        {
          "internalType": "address",
          "name": "_verifier",
          "type": "address"
        },
        {
          "internalType": "address",
          "name": "_poseidonHasher",
          "type": "address"
        },
        {
          "internalType": "address",
          "name": "_poseidonHasher5",
          "type": "address"
        },
        {
          "internalType": "address",
          "name": "_initialOwner",
          "type": "address"
        }
      ],
      "stateMutability": "nonpayable",
      "type": "constructor"
    },
    {
      "inputs": [
        {
          "internalType": "address",
          "name": "owner",
          "type": "address"
        }
      ],
      "name": "OwnableInvalidOwner",
      "type": "error"
    },
    {
      "inputs": [
        {
          "internalType": "address",
          "name": "account",
          "type": "address"
        }
      ],
      "name": "OwnableUnauthorizedAccount",
      "type": "error"
    },
    {
      "anonymous": false,
      "inputs": [
        {
          "indexed": true,
          "internalType": "bytes32",
          "name": "commitment",
          "type": "bytes32"
        },
        {
          "indexed": false,
          "internalType": "uint32",
          "name": "leafIndex",
          "type": "uint32"
        },
        {
          "indexed": false,
          "internalType": "uint256",
          "name": "timestamp",
          "type": "uint256"
        }
      ],
      "name": "Deposit",
      "type": "event"
    },
    {
      "anonymous": false,
      "inputs": [
        {
          "indexed": true,
          "internalType": "address",
          "name": "previousOwner",
          "type": "address"
        },
        {
          "indexed": true,
          "internalType": "address",
          "name": "newOwner",
          "type": "address"
        }
      ],
      "name": "OwnershipTransferred",
      "type": "event"
    },
    {
      "anonymous": false,
      "inputs": [
        {
          "indexed": true,
          "internalType": "bytes32",
          "name": "nullifier",
          "type": "bytes32"
        },
        {
          "indexed": true,
          "internalType": "bytes32",
          "name": "newCommitment",
          "type": "bytes32"
        },
        {
          "indexed": false,
          "internalType": "address",
          "name": "target",
          "type": "address"
        },
        {
          "indexed": false,
          "internalType": "uint256",
          "name": "tradeAmount",
          "type": "uint256"
        }
      ],
      "name": "Trade",
      "type": "event"
    },
    {
      "anonymous": false,
      "inputs": [
        {
          "indexed": false,
          "internalType": "address",
          "name": "to",
          "type": "address"
        },
        {
          "indexed": false,
          "internalType": "bytes32",
          "name": "nullifier",
          "type": "bytes32"
        }
      ],
      "name": "Withdrawal",
      "type": "event"
    },
    {
      "inputs": [],
      "name": "DEPOSIT_AMOUNT",
      "outputs": [
        {
          "internalType": "uint256",
          "name": "",
          "type": "uint256"
        }
      ],
      "stateMutability": "view",
      "type": "function"
    },
    {
      "inputs": [
        {
          "internalType": "uint256",
          "name": "_nullifier",
          "type": "uint256"
        },
        {
          "internalType": "uint256",
          "name": "_secret",
          "type": "uint256"
        }
      ],
      "name": "calculateCommitment",
      "outputs": [
        {
          "internalType": "bytes32",
          "name": "",
          "type": "bytes32"
        }
      ],
      "stateMutability": "view",
      "type": "function"
    },
    {
      "inputs": [
        {
          "internalType": "bytes32",
          "name": "_commitment",
          "type": "bytes32"
        }
      ],
      "name": "deposit",
      "outputs": [],
      "stateMutability": "payable",
      "type": "function"
    },
    {
      "inputs": [],
      "name": "merkleRoot",
      "outputs": [
        {
          "internalType": "bytes32",
          "name": "",
          "type": "bytes32"
        }
      ],
      "stateMutability": "view",
      "type": "function"
    },
    {
      "inputs": [],
      "name": "nextLeafIndex",
      "outputs": [
        {
          "internalType": "uint256",
          "name": "",
          "type": "uint256"
        }
      ],
      "stateMutability": "view",
      "type": "function"
    },
    {
      "inputs": [
        {
          "internalType": "bytes32",
          "name": "",
          "type": "bytes32"
        }
      ],
      "name": "nullifiers",
      "outputs": [
        {
          "internalType": "bool",
          "name": "",
          "type": "bool"
        }
      ],
      "stateMutability": "view",
      "type": "function"
    },
    {
      "inputs": [],
      "name": "owner",
      "outputs": [
        {
          "internalType": "address",
          "name": "",
          "type": "address"
        }
      ],
      "stateMutability": "view",
      "type": "function"
    },
    {
      "inputs": [],
      "name": "poseidonHasher",
      "outputs": [
        {
          "internalType": "contract IPoseidonHasher",
          "name": "",
          "type": "address"
        }
      ],
      "stateMutability": "view",
      "type": "function"
    },
    {
      "inputs": [],
      "name": "poseidonHasher5",
      "outputs": [
        {
          "internalType": "contract IPoseidonHasher5",
          "name": "",
          "type": "address"
        }
      ],
      "stateMutability": "view",
      "type": "function"
    },
    {
      "inputs": [],
      "name": "renounceOwnership",
      "outputs": [],
      "stateMutability": "nonpayable",
      "type": "function"
    },
    {
      "inputs": [
        {
          "internalType": "bytes32",
          "name": "",
          "type": "bytes32"
        }
      ],
      "name": "rootHistory",
      "outputs": [
        {
          "internalType": "bool",
          "name": "",
          "type": "bool"
        }
      ],
      "stateMutability": "view",
      "type": "function"
    },
    {
      "inputs": [
        {
          "internalType": "uint256[2]",
          "name": "_pA",
          "type": "uint256[2]"
        },
        {
          "internalType": "uint256[2][2]",
          "name": "_pB",
          "type": "uint256[2][2]"
        },
        {
          "internalType": "uint256[2]",
          "name": "_pC",
          "type": "uint256[2]"
        },
        {
          "internalType": "bytes32",
          "name": "_merkleRoot",
          "type": "bytes32"
        },
        {
          "internalType": "bytes32",
          "name": "_nullifier",
          "type": "bytes32"
        },
        {
          "internalType": "bytes32",
          "name": "_newCommitment",
          "type": "bytes32"
        },
        {
          "internalType": "uint256",
          "name": "_tradeAmount",
          "type": "uint256"
        },
        {
          "internalType": "address",
          "name": "_recipient",
          "type": "address"
        },
        {
          "internalType": "bytes32",
          "name": "_tradeDataHash",
          "type": "bytes32"
        },
        {
          "internalType": "address",
          "name": "_target",
          "type": "address"
        },
        {
          "internalType": "bytes",
          "name": "_callData",
          "type": "bytes"
        }
      ],
      "name": "trade",
      "outputs": [],
      "stateMutability": "nonpayable",
      "type": "function"
    },
    {
      "inputs": [
        {
          "internalType": "address",
          "name": "newOwner",
          "type": "address"
        }
      ],
      "name": "transferOwnership",
      "outputs": [],
      "stateMutability": "nonpayable",
      "type": "function"
    },
    {
      "inputs": [],
      "name": "verifier",
      "outputs": [
        {
          "internalType": "contract IVerifier",
          "name": "",
          "type": "address"
        }
      ],
      "stateMutability": "view",
      "type": "function"
    },
    {
      "inputs": [
        {
          "internalType": "uint256[2]",
          "name": "_pA",
          "type": "uint256[2]"
        },
        {
          "internalType": "uint256[2][2]",
          "name": "_pB",
          "type": "uint256[2][2]"
        },
        {
          "internalType": "uint256[2]",
          "name": "_pC",
          "type": "uint256[2]"
        },
        {
          "internalType": "bytes32",
          "name": "_proofRoot",
          "type": "bytes32"
        },
        {
          "internalType": "bytes32",
          "name": "_nullifier",
          "type": "bytes32"
        },
        {
          "internalType": "address payable",
          "name": "_recipient",
          "type": "address"
        },
        {
          "internalType": "uint256",
          "name": "_fee",
          "type": "uint256"
        },
        {
          "internalType": "address payable",
          "name": "_relayer",
          "type": "address"
        }
      ],
      "name": "withdraw",
      "outputs": [],
      "stateMutability": "nonpayable",
      "type": "function"
    }
  ],
  "bytecode": "0x60e060405234801561000f575f5ffd5b506040516118a53803806118a583398101604081905261002e91610231565b806001600160a01b03811661005c57604051631e4fbdf760e01b81525f600482015260240160405180910390fd5b61006581610140565b506001600160a01b0380851660805283811660a052821660c0525f6100ca7f30644e72e131a029b85045b68181585d2833e84879b9709143e1f593f00000017f6d784aa9e94f39491813fef91f97a918e64eeba8ca2810b982cd18bbd48ef720610282565b90505f5b60108110156101175781600582601081106100eb576100eb6102a1565b01558160158260108110610101576101016102a1565b015561010d828061018f565b91506001016100ce565b5060018181555f91825260046020526040909120805460ff19169091179055506102fc92505050565b5f80546001600160a01b038381166001600160a01b0319831681178455604051919092169283917f8be0079c531659141344cd1fd0a4f28419497f9722a3daafe3b4186f6b6457e09190a35050565b60a0516040805180820182528481526020810184905290516314d2f97b60e11b81525f926001600160a01b0316916329a5f2f6916101d091906004016102b5565b602060405180830381865afa1580156101eb573d5f5f3e3d5ffd5b505050506040513d601f19601f8201168201806040525081019061020f91906102e5565b9392505050565b80516001600160a01b038116811461022c575f5ffd5b919050565b5f5f5f5f60808587031215610244575f5ffd5b61024d85610216565b935061025b60208601610216565b925061026960408601610216565b915061027760608601610216565b905092959194509250565b5f8261029c57634e487b7160e01b5f52601260045260245ffd5b500690565b634e487b7160e01b5f52603260045260245ffd5b6040810181835f5b60028110156102dc5781518352602092830192909101906001016102bd565b50505092915050565b5f602082840312156102f5575f5ffd5b5051919050565b60805160a05160c05161153961036c5f395f6102c201525f81816101e0015281816105c70152818161080601528181610d0b01528181610d6c01528181610e0b01528181610ea901528181610f1f0152610ff101525f8181610180015281816104000152610b5c01526115395ff3fe6080604052600436106100e4575f3560e01c806366dd97ab11610087578063b923d7d111610057578063b923d7d114610292578063eb583035146102b1578063ec6925a7146102e4578063f2fde38b146102ff575f5ffd5b806366dd97ab14610221578063715018a61461024f5780638da5cb5b14610263578063b214faa51461027f575f5ffd5b80632b7ac3f3116100c25780632b7ac3f31461016f5780632eb4a7ab146101ba578063331b6ab3146101cf57806350fcc7c514610202575f5ffd5b80630be4f422146100e85780631e11b9ea146101105780632997e86b14610131575b5f5ffd5b3480156100f3575f5ffd5b506100fd60025481565b6040519081526020015b60405180910390f35b34801561011b575f5ffd5b5061012f61012a3660046110a3565b61031e565b005b34801561013c575f5ffd5b5061015f61014b36600461112e565b60036020525f908152604090205460ff1681565b6040519015158152602001610107565b34801561017a575f5ffd5b506101a27f000000000000000000000000000000000000000000000000000000000000000081565b6040516001600160a01b039091168152602001610107565b3480156101c5575f5ffd5b506100fd60015481565b3480156101da575f5ffd5b506101a27f000000000000000000000000000000000000000000000000000000000000000081565b34801561020d575f5ffd5b506100fd61021c366004611145565b61059c565b34801561022c575f5ffd5b5061015f61023b36600461112e565b60046020525f908152604090205460ff1681565b34801561025a575f5ffd5b5061012f610642565b34801561026e575f5ffd5b505f546001600160a01b03166101a2565b61012f61028d36600461112e565b610655565b34801561029d575f5ffd5b5061012f6102ac3660046111aa565b6106ff565b3480156102bc575f5ffd5b506101a27f000000000000000000000000000000000000000000000000000000000000000081565b3480156102ef575f5ffd5b506100fd67016345785d8a000081565b34801561030a575f5ffd5b5061012f610319366004611281565b61079d565b5f8581526004602052604090205460ff166103765760405162461bcd60e51b8152602060048201526013602482015272125b9d985b1a590813595c9adb19481c9bdbdd606a1b60448201526064015b60405180910390fd5b5f8481526003602052604090205460ff16156103ce5760405162461bcd60e51b8152602060048201526017602482015276139d5b1b1a599a595c881a185cc81899595b881d5cd959604a1b604482015260640161036d565b5f6103d986866107da565b6040805160208101825282815290516343753b4d60e01b8152919250906001600160a01b037f000000000000000000000000000000000000000000000000000000000000000016906343753b4d9061043b908d908d908d9087906004016112a3565b602060405180830381865afa158015610456573d5f5f3e3d5ffd5b505050506040513d601f19601f8201168201806040525081019061047a9190611313565b6104b65760405162461bcd60e51b815260206004820152600d60248201526c24b73b30b634b210383937b7b360991b604482015260640161036d565b5f868152600360205260409020805460ff191660011790556001600160a01b0385166108fc6104ed8667016345785d8a0000611346565b6040518115909202915f818181858888f19350505050158015610512573d5f5f3e3d5ffd5b50831561054e576040516001600160a01b0384169085156108fc029086905f818181858888f1935050505015801561054c573d5f5f3e3d5ffd5b505b604080516001600160a01b0387168152602081018890527f0ce490531f6c8ae2f1ff174643bc8b7ed5e52987ab50dc1e8f33655d2cd8c90b910160405180910390a150505050505050505050565b6040805180820182528381526020810183905290516314d2f97b60e11b81525f916001600160a01b037f000000000000000000000000000000000000000000000000000000000000000016916329a5f2f6916105fa91600401611359565b602060405180830381865afa158015610615573d5f5f3e3d5ffd5b505050506040513d601f19601f820116820180604052508101906106399190611389565b90505b92915050565b61064a610882565b6106535f6108ae565b565b67016345785d8a000034146106a55760405162461bcd60e51b8152602060048201526016602482015275125b9d985b1a590819195c1bdcda5d08185b5bdd5b9d60521b604482015260640161036d565b6106ae816108fd565b807fa945e51eec50ab98c161376f0db4cf2aeba3ec92755fe2fcd388bdbbb80ff19660016002546106df9190611346565b6040805163ffffffff90921682524260208301520160405180910390a250565b61070c8989878988610a17565b61071d8c8c8c8c8c8c8c8c8c610b26565b5f888152600360205260409020805460ff1916600117905561073e876108fd565b610749838383610c22565b604080516001600160a01b03851681526020810188905288918a917fefd1440d5fc8e6c86c4779062de1482a96c94e22499b7b61884dc57210621d63910160405180910390a3505050505050505050505050565b6107a5610882565b6001600160a01b0381166107ce57604051631e4fbdf760e01b81525f600482015260240161036d565b6107d7816108ae565b50565b6040805180820182528381526020810183905290516314d2f97b60e11b81525f91906001600160a01b037f000000000000000000000000000000000000000000000000000000000000000016906329a5f2f69061083b908490600401611359565b602060405180830381865afa158015610856573d5f5f3e3d5ffd5b505050506040513d601f19601f8201168201806040525081019061087a9190611389565b949350505050565b5f546001600160a01b031633146106535760405163118cdaa760e01b815233600482015260240161036d565b5f80546001600160a01b038381166001600160a01b0319831681178455604051919092169283917f8be0079c531659141344cd1fd0a4f28419497f9722a3daafe3b4186f6b6457e09190a35050565b61090960106002611483565b6002541061094f5760405162461bcd60e51b815260206004820152601360248201527213595c9adb19481d1c9959481a5cc8199d5b1b606a1b604482015260640161036d565b600254815f5b60108110156109e0576109696002846114a2565b5f036109aa578160158260108110610983576109836114b5565b01556109a3826005836010811061099c5761099c6114b5565b015461059c565b91506109cb565b6109c8601582601081106109c0576109c06114b5565b01548361059c565b91505b6109d66002846114c9565b9250600101610955565b5060018181555f828152600460205260408120805460ff19169092179091556002805491610a0d836114dc565b9190505550505050565b5f8581526004602052604090205460ff16610a6a5760405162461bcd60e51b8152602060048201526013602482015272125b9d985b1a590813595c9adb19481c9bdbdd606a1b604482015260640161036d565b5f8481526003602052604090205460ff1615610ac25760405162461bcd60e51b8152602060048201526017602482015276139d5b1b1a599a595c881a185cc81899595b881d5cd959604a1b604482015260640161036d565b5f610acd8484610cde565b9050808214610b1e5760405162461bcd60e51b815260206004820152601760248201527f496e76616c696420747261646520646174612068617368000000000000000000604482015260640161036d565b505050505050565b5f610b35878787878787610d3f565b6040805160208101825282815290516343753b4d60e01b8152919250906001600160a01b037f000000000000000000000000000000000000000000000000000000000000000016906343753b4d90610b97908e908e908e9087906004016112a3565b602060405180830381865afa158015610bb2573d5f5f3e3d5ffd5b505050506040513d601f19601f82011682018060405250810190610bd69190611313565b610c155760405162461bcd60e51b815260206004820152601060248201526f24b73b30b634b2102d2590383937b7b360811b604482015260640161036d565b5050505050505050505050565b5f5f846001600160a01b03168484604051610c3e9291906114f4565b5f604051808303815f865af19150503d805f8114610c77576040519150601f19603f3d011682016040523d82523d5f602084013e610c7c565b606091505b509150915081610cd757805115610c965780518082602001fd5b60405162461bcd60e51b8152602060048201526016602482015275151c98591948195e1958dd5d1a5bdb8819985a5b195960521b604482015260640161036d565b5050505050565b6040805180820182526001600160a01b0384811682526020820184905291516314d2f97b60e11b81525f927f000000000000000000000000000000000000000000000000000000000000000016916329a5f2f6916105fa9190600401611359565b6040805180820182528781526020810187905290516314d2f97b60e11b81525f9182916001600160a01b037f000000000000000000000000000000000000000000000000000000000000000016916329a5f2f691610da09190600401611359565b602060405180830381865afa158015610dbb573d5f5f3e3d5ffd5b505050506040513d601f19601f82011682018060405250810190610ddf9190611389565b6040805180820182528281526020810189905290516314d2f97b60e11b81529192506001600160a01b037f000000000000000000000000000000000000000000000000000000000000000016916329a5f2f691610e3e91600401611359565b602060405180830381865afa158015610e59573d5f5f3e3d5ffd5b505050506040513d601f19601f82011682018060405250810190610e7d9190611389565b6040805180820182528281526020810188905290516314d2f97b60e11b81529192506001600160a01b037f000000000000000000000000000000000000000000000000000000000000000016916329a5f2f691610edc91600401611359565b602060405180830381865afa158015610ef7573d5f5f3e3d5ffd5b505050506040513d601f19601f82011682018060405250810190610f1b9190611389565b90507f00000000000000000000000000000000000000000000000000000000000000006001600160a01b03166329a5f2f66040518060400160405280848152602001876001600160a01b03168152506040518263ffffffff1660e01b8152600401610f869190611359565b602060405180830381865afa158015610fa1573d5f5f3e3d5ffd5b505050506040513d601f19601f82011682018060405250810190610fc59190611389565b6040805180820182528281526020810186905290516314d2f97b60e11b81529192506001600160a01b037f000000000000000000000000000000000000000000000000000000000000000016916329a5f2f69161102491600401611359565b602060405180830381865afa15801561103f573d5f5f3e3d5ffd5b505050506040513d601f19601f820116820180604052508101906110639190611389565b98975050505050505050565b806040810183101561063c575f5ffd5b806080810183101561063c575f5ffd5b6001600160a01b03811681146107d7575f5ffd5b5f5f5f5f5f5f5f5f6101a0898b0312156110bb575f5ffd5b6110c58a8a61106f565b97506110d48a60408b0161107f565b96506110e38a60c08b0161106f565b9550610100890135945061012089013593506101408901356111048161108f565b9250610160890135915061018089013561111d8161108f565b809150509295985092959890939650565b5f6020828403121561113e575f5ffd5b5035919050565b5f5f60408385031215611156575f5ffd5b50508035926020909101359150565b5f5f83601f840112611175575f5ffd5b50813567ffffffffffffffff81111561118c575f5ffd5b6020830191508360208285010111156111a3575f5ffd5b9250929050565b5f5f5f5f5f5f5f5f5f5f5f5f6102008d8f0312156111c6575f5ffd5b6111d08e8e61106f565b9b506111df8e60408f0161107f565b9a506111ee8e60c08f0161106f565b99506101008d013598506101208d013597506101408d013596506101608d0135955061121e6101808e013561108f565b6101808d013594506101a08d013593506101c08d013561123d8161108f565b925067ffffffffffffffff6101e08e01351115611258575f5ffd5b6112698e6101e08f01358f01611165565b81935080925050509295989b509295989b509295989b565b5f60208284031215611291575f5ffd5b813561129c8161108f565b9392505050565b6101208101604086833760408201855f5b60028110156112d557604082843760409283019291909101906001016112b4565b50505060408460c08401376101008201835f5b60018110156113075781518352602092830192909101906001016112e8565b50505095945050505050565b5f60208284031215611323575f5ffd5b8151801515811461129c575f5ffd5b634e487b7160e01b5f52601160045260245ffd5b8181038181111561063c5761063c611332565b6040810181835f5b6002811015611380578151835260209283019290910190600101611361565b50505092915050565b5f60208284031215611399575f5ffd5b5051919050565b6001815b60018411156113db578085048111156113bf576113bf611332565b60018416156113cd57908102905b60019390931c9280026113a4565b935093915050565b5f826113f15750600161063c565b816113fd57505f61063c565b8160018114611413576002811461141d57611439565b600191505061063c565b60ff84111561142e5761142e611332565b50506001821b61063c565b5060208310610133831016604e8410600b841016171561145c575081810a61063c565b6114685f1984846113a0565b805f190482111561147b5761147b611332565b029392505050565b5f61129c83836113e3565b634e487b7160e01b5f52601260045260245ffd5b5f826114b0576114b061148e565b500690565b634e487b7160e01b5f52603260045260245ffd5b5f826114d7576114d761148e565b500490565b5f600182016114ed576114ed611332565b5060010190565b818382375f910190815291905056fea26469706673582212206db549a57380c9b35b2c108b1d8e042217f690a4265ce4ee9fed2f9db56bbec364736f6c634300081c0033",
  "linkReferences": {},
  "deployedLinkReferences": {}
}