{
  "_format": "hh-sol-artifact-1",
  "contractName": "Paymaster",
  "sourceName": "contracts/Paymaster.sol",
  "abi": [
    {
      "inputs": [
        {
          "internalType": "address",
          "name": "_entryPoint",
          "type": "address"
        },
        {
          "internalType": "address",
          "name": "_owner",
          "type": "address"
        }
      ],
      "stateMutability": "nonpayable",
      "type": "constructor"
    },
    {
      "inputs": [],
      "name": "InvalidPaymasterAndDataLength",
      "type": "error"
    },
    {
      "inputs": [],
      "name": "InvalidTimestamp",
      "type": "error"
    },
    {
      "inputs": [
        {
          "internalType": "address",
          "name": "owner",
          "type": "address"
        }
      ],
      "name": "OwnableInvalidOwner",
      "type": "error"
    },
    {
      "inputs": [
        {
          "internalType": "address",
          "name": "account",
          "type": "address"
        }
      ],
      "name": "OwnableUnauthorizedAccount",
      "type": "error"
    },
    {
      "inputs": [],
      "name": "UnsupportedTarget",
      "type": "error"
    },
    {
      "anonymous": false,
      "inputs": [
        {
          "indexed": true,
          "internalType": "address",
          "name": "depositor",
          "type": "address"
        },
        {
          "indexed": false,
          "internalType": "uint256",
          "name": "amount",
          "type": "uint256"
        }
      ],
      "name": "FundsDeposited",
      "type": "event"
    },
    {
      "anonymous": false,
      "inputs": [
        {
          "indexed": true,
          "internalType": "address",
          "name": "previousOwner",
          "type": "address"
        },
        {
          "indexed": true,
          "internalType": "address",
          "name": "newOwner",
          "type": "address"
        }
      ],
      "name": "OwnershipTransferred",
      "type": "event"
    },
    {
      "anonymous": false,
      "inputs": [
        {
          "indexed": true,
          "internalType": "address",
          "name": "target",
          "type": "address"
        },
        {
          "indexed": false,
          "internalType": "bool",
          "name": "supported",
          "type": "bool"
        }
      ],
      "name": "TargetSupportChanged",
      "type": "event"
    },
    {
      "inputs": [
        {
          "internalType": "uint256",
          "name": "verificationGasLimit",
          "type": "uint256"
        },
        {
          "internalType": "uint256",
          "name": "postOpGasLimit",
          "type": "uint256"
        },
        {
          "internalType": "uint48",
          "name": "validUntil",
          "type": "uint48"
        },
        {
          "internalType": "uint48",
          "name": "validAfter",
          "type": "uint48"
        }
      ],
      "name": "createPaymasterAndData",
      "outputs": [
        {
          "internalType": "bytes",
          "name": "",
          "type": "bytes"
        }
      ],
      "stateMutability": "view",
      "type": "function"
    },
    {
      "inputs": [],
      "name": "depositToEntryPoint",
      "outputs": [],
      "stateMutability": "payable",
      "type": "function"
    },
    {
      "inputs": [],
      "name": "entryPoint",
      "outputs": [
        {
          "internalType": "contract IEntryPoint",
          "name": "",
          "type": "address"
        }
      ],
      "stateMutability": "view",
      "type": "function"
    },
    {
      "inputs": [],
      "name": "owner",
      "outputs": [
        {
          "internalType": "address",
          "name": "",
          "type": "address"
        }
      ],
      "stateMutability": "view",
      "type": "function"
    },
    {
      "inputs": [
        {
          "internalType": "enum IPaymaster.PostOpMode",
          "name": "",
          "type": "uint8"
        },
        {
          "internalType": "bytes",
          "name": "",
          "type": "bytes"
        },
        {
          "internalType": "uint256",
          "name": "",
          "type": "uint256"
        },
        {
          "internalType": "uint256",
          "name": "",
          "type": "uint256"
        }
      ],
      "name": "postOp",
      "outputs": [],
      "stateMutability": "nonpayable",
      "type": "function"
    },
    {
      "inputs": [],
      "name": "renounceOwnership",
      "outputs": [],
      "stateMutability": "nonpayable",
      "type": "function"
    },
    {
      "inputs": [
        {
          "internalType": "address",
          "name": "target",
          "type": "address"
        },
        {
          "internalType": "bool",
          "name": "supported",
          "type": "bool"
        }
      ],
      "name": "setSupportedTarget",
      "outputs": [],
      "stateMutability": "nonpayable",
      "type": "function"
    },
    {
      "inputs": [
        {
          "internalType": "address",
          "name": "",
          "type": "address"
        }
      ],
      "name": "supportedTargets",
      "outputs": [
        {
          "internalType": "bool",
          "name": "",
          "type": "bool"
        }
      ],
      "stateMutability": "view",
      "type": "function"
    },
    {
      "inputs": [
        {
          "internalType": "address",
          "name": "newOwner",
          "type": "address"
        }
      ],
      "name": "transferOwnership",
      "outputs": [],
      "stateMutability": "nonpayable",
      "type": "function"
    },
    {
      "inputs": [
        {
          "components": [
            {
              "internalType": "address",
              "name": "sender",
              "type": "address"
            },
            {
              "internalType": "uint256",
              "name": "nonce",
              "type": "uint256"
            },
            {
              "internalType": "bytes",
              "name": "initCode",
              "type": "bytes"
            },
            {
              "internalType": "bytes",
              "name": "callData",
              "type": "bytes"
            },
            {
              "internalType": "bytes32",
              "name": "accountGasLimits",
              "type": "bytes32"
            },
            {
              "internalType": "uint256",
              "name": "preVerificationGas",
              "type": "uint256"
            },
            {
              "internalType": "bytes32",
              "name": "gasFees",
              "type": "bytes32"
            },
            {
              "internalType": "bytes",
              "name": "paymasterAndData",
              "type": "bytes"
            },
            {
              "internalType": "bytes",
              "name": "signature",
              "type": "bytes"
            }
          ],
          "internalType": "struct PackedUserOperation",
          "name": "userOp",
          "type": "tuple"
        },
        {
          "internalType": "bytes32",
          "name": "",
          "type": "bytes32"
        },
        {
          "internalType": "uint256",
          "name": "",
          "type": "uint256"
        }
      ],
      "name": "validatePaymasterUserOp",
      "outputs": [
        {
          "internalType": "bytes",
          "name": "context",
          "type": "bytes"
        },
        {
          "internalType": "uint256",
          "name": "validationData",
          "type": "uint256"
        }
      ],
      "stateMutability": "view",
      "type": "function"
    }
  ],
  "bytecode": "0x60a060405234801561000f575f5ffd5b50604051610cf3380380610cf383398101604081905261002e916100e2565b806001600160a01b03811661005c57604051631e4fbdf760e01b81525f600482015260240160405180910390fd5b61006581610078565b50506001600160a01b0316608052610113565b5f80546001600160a01b038381166001600160a01b0319831681178455604051919092169283917f8be0079c531659141344cd1fd0a4f28419497f9722a3daafe3b4186f6b6457e09190a35050565b80516001600160a01b03811681146100dd575f5ffd5b919050565b5f5f604083850312156100f3575f5ffd5b6100fc836100c7565b915061010a602084016100c7565b90509250929050565b608051610bc16101325f395f818161020101526102950152610bc15ff3fe60806040526004361061008f575f3560e01c80638f8780a4116100575780638f8780a414610138578063a19f212f146101d1578063b0d691fe146101f0578063dc69c06f14610223578063f2fde38b14610261575f5ffd5b80631b3ba1011461009357806352b7512c1461009d578063715018a6146100d35780637c627b21146100e75780638da5cb5b14610108575b5f5ffd5b61009b610280565b005b3480156100a8575f5ffd5b506100bc6100b7366004610832565b61032f565b6040516100ca9291906108af565b60405180910390f35b3480156100de575f5ffd5b5061009b610510565b3480156100f2575f5ffd5b5061009b6101013660046108d0565b5050505050565b348015610113575f5ffd5b505f546001600160a01b03165b6040516001600160a01b0390911681526020016100ca565b348015610143575f5ffd5b506101c461015236600461097e565b6040805130606090811b6bffffffffffffffffffffffff19166020830152608096871b6001600160801b031990811660348401529590961b909416604485015260d092831b6001600160d01b031990811660548601529190921b16605a83015280518083038201815292909101905290565b6040516100ca91906109c1565b3480156101dc575f5ffd5b5061009b6101eb3660046109f0565b610523565b3480156101fb575f5ffd5b506101207f000000000000000000000000000000000000000000000000000000000000000081565b34801561022e575f5ffd5b5061025161023d366004610a29565b60016020525f908152604090205460ff1681565b60405190151581526020016100ca565b34801561026c575f5ffd5b5061009b61027b366004610a29565b610589565b60405163b760faf960e01b81523060048201527f00000000000000000000000000000000000000000000000000000000000000006001600160a01b03169063b760faf99034906024015f604051808303818588803b1580156102e0575f5ffd5b505af11580156102f2573d5f5f3e3d5ffd5b50506040513481523393507f543ba50a5eec5e6178218e364b1d0f396157b3c8fa278522c2cb7fd99407d4749250602001905060405180910390a2565b60605f80808061034a61034560e08a018a610a42565b6105c6565b919450925090506001600160a01b03831630146103ae5760405162461bcd60e51b815260206004820152601d60248201527f4141393320696e76616c6964207061796d6173746572416e644461746100000060448201526064015b60405180910390fd5b5f6103c46103bf60608b018b610a42565b610636565b6001600160a01b0381165f9081526001602052604090205490915060ff1661042e5760405162461bcd60e51b815260206004820152601f60248201527f5061796d61737465723a20746172676574206e6f7420737570706f727465640060448201526064016103a5565b5f8061044561044060e08d018d610a42565b6106b5565b915091508065ffffffffffff164210156104985760405162461bcd60e51b81526020600482015260146024820152735061796d61737465723a20746f6f206561726c7960601b60448201526064016103a5565b8165ffffffffffff164211156104e65760405162461bcd60e51b81526020600482015260136024820152725061796d61737465723a20746f6f206c61746560681b60448201526064016103a5565b6104f15f8383610779565b60408051602081019091525f81529c909b509950505050505050505050565b6105186107b7565b6105215f6107e3565b565b61052b6107b7565b6001600160a01b0382165f81815260016020908152604091829020805460ff191685151590811790915591519182527fe5239967f86bdfebd2052a7d2539a8359f2cdefacfbdeb04bdd72e854c994553910160405180910390a25050565b6105916107b7565b6001600160a01b0381166105ba57604051631e4fbdf760e01b81525f60048201526024016103a5565b6105c3816107e3565b50565b5f80806105d66014828688610a8c565b6105df91610ab3565b60601c6105f0602460148789610a8c565b6105f991610b00565b60801c61060a60346024888a610a8c565b61061391610b00565b9194506fffffffffffffffffffffffffffffffff16925060801c90509250925092565b5f60148210156106935760405162461bcd60e51b815260206004820152602260248201527f5061796d61737465723a20696e76616c69642063616c6c44617461206c656e676044820152610e8d60f31b60648201526084016103a5565b6106a060145f8486610a8c565b6106a991610ab3565b60601c90505b92915050565b5f806106c36034600c610b36565b8310156107125760405162461bcd60e51b815260206004820152601c60248201527f5061796d61737465723a20696e76616c69642074696d6520646174610000000060448201526064016103a5565b83603484610721826006610b36565b9261072e93929190610a8c565b61073791610b55565b60d01c9150838361074a60346006610b36565b906107576034600c610b36565b9261076493929190610a8c565b61076d91610b55565b60d01c90509250929050565b5f609084610787575f61078a565b60015b60ff16901b60ff1660608365ffffffffffff16901b60308565ffffffffffff16901b171790509392505050565b5f546001600160a01b031633146105215760405163118cdaa760e01b81523360048201526024016103a5565b5f80546001600160a01b038381166001600160a01b0319831681178455604051919092169283917f8be0079c531659141344cd1fd0a4f28419497f9722a3daafe3b4186f6b6457e09190a35050565b5f5f5f60608486031215610844575f5ffd5b833567ffffffffffffffff81111561085a575f5ffd5b8401610120818703121561086c575f5ffd5b95602085013595506040909401359392505050565b5f81518084528060208401602086015e5f602082860101526020601f19601f83011685010191505092915050565b604081525f6108c16040830185610881565b90508260208301529392505050565b5f5f5f5f5f608086880312156108e4575f5ffd5b8535600381106108f2575f5ffd5b9450602086013567ffffffffffffffff81111561090d575f5ffd5b8601601f8101881361091d575f5ffd5b803567ffffffffffffffff811115610933575f5ffd5b886020828401011115610944575f5ffd5b959860209190910197509495604081013595606090910135945092505050565b803565ffffffffffff81168114610979575f5ffd5b919050565b5f5f5f5f60808587031215610991575f5ffd5b84359350602085013592506109a860408601610964565b91506109b660608601610964565b905092959194509250565b602081525f6109d36020830184610881565b9392505050565b80356001600160a01b0381168114610979575f5ffd5b5f5f60408385031215610a01575f5ffd5b610a0a836109da565b915060208301358015158114610a1e575f5ffd5b809150509250929050565b5f60208284031215610a39575f5ffd5b6109d3826109da565b5f5f8335601e19843603018112610a57575f5ffd5b83018035915067ffffffffffffffff821115610a71575f5ffd5b602001915036819003821315610a85575f5ffd5b9250929050565b5f5f85851115610a9a575f5ffd5b83861115610aa6575f5ffd5b5050820193919092039150565b80356bffffffffffffffffffffffff198116906014841015610af9576bffffffffffffffffffffffff196bffffffffffffffffffffffff198560140360031b1b82161691505b5092915050565b80356001600160801b03198116906010841015610af9576001600160801b031960109490940360031b84901b1690921692915050565b808201808211156106af57634e487b7160e01b5f52601160045260245ffd5b80356001600160d01b03198116906006841015610af9576001600160d01b031960069490940360031b84901b169092169291505056fea2646970667358221220296eeac24636ea119210f213907b5e4a2be5be9746dacab280f4e9939848aa9a64736f6c634300081c0033",
  "linkReferences": {},
  "deployedLinkReferences": {}
}