{
  "_format": "hh-sol-artifact-1",
  "contractName": "Paymaster",
  "sourceName": "contracts/Paymaster.sol",
  "abi": [
    {
      "inputs": [
        {
          "internalType": "address",
          "name": "_entryPoint",
          "type": "address"
        },
        {
          "internalType": "address",
          "name": "_owner",
          "type": "address"
        }
      ],
      "stateMutability": "nonpayable",
      "type": "constructor"
    },
    {
      "inputs": [
        {
          "internalType": "address",
          "name": "owner",
          "type": "address"
        }
      ],
      "name": "OwnableInvalidOwner",
      "type": "error"
    },
    {
      "inputs": [
        {
          "internalType": "address",
          "name": "account",
          "type": "address"
        }
      ],
      "name": "OwnableUnauthorizedAccount",
      "type": "error"
    },
    {
      "inputs": [],
      "name": "UnsupportedTarget",
      "type": "error"
    },
    {
      "anonymous": false,
      "inputs": [
        {
          "indexed": true,
          "internalType": "address",
          "name": "depositor",
          "type": "address"
        },
        {
          "indexed": false,
          "internalType": "uint256",
          "name": "amount",
          "type": "uint256"
        }
      ],
      "name": "FundsDeposited",
      "type": "event"
    },
    {
      "anonymous": false,
      "inputs": [
        {
          "indexed": true,
          "internalType": "address",
          "name": "previousOwner",
          "type": "address"
        },
        {
          "indexed": true,
          "internalType": "address",
          "name": "newOwner",
          "type": "address"
        }
      ],
      "name": "OwnershipTransferred",
      "type": "event"
    },
    {
      "anonymous": false,
      "inputs": [
        {
          "indexed": true,
          "internalType": "address",
          "name": "target",
          "type": "address"
        },
        {
          "indexed": false,
          "internalType": "bool",
          "name": "supported",
          "type": "bool"
        }
      ],
      "name": "TargetSupportChanged",
      "type": "event"
    },
    {
      "inputs": [],
      "name": "depositToEntryPoint",
      "outputs": [],
      "stateMutability": "payable",
      "type": "function"
    },
    {
      "inputs": [],
      "name": "entryPoint",
      "outputs": [
        {
          "internalType": "contract IEntryPoint",
          "name": "",
          "type": "address"
        }
      ],
      "stateMutability": "view",
      "type": "function"
    },
    {
      "inputs": [],
      "name": "owner",
      "outputs": [
        {
          "internalType": "address",
          "name": "",
          "type": "address"
        }
      ],
      "stateMutability": "view",
      "type": "function"
    },
    {
      "inputs": [
        {
          "internalType": "enum IPaymaster.PostOpMode",
          "name": "",
          "type": "uint8"
        },
        {
          "internalType": "bytes",
          "name": "",
          "type": "bytes"
        },
        {
          "internalType": "uint256",
          "name": "",
          "type": "uint256"
        },
        {
          "internalType": "uint256",
          "name": "",
          "type": "uint256"
        }
      ],
      "name": "postOp",
      "outputs": [],
      "stateMutability": "view",
      "type": "function"
    },
    {
      "inputs": [],
      "name": "renounceOwnership",
      "outputs": [],
      "stateMutability": "nonpayable",
      "type": "function"
    },
    {
      "inputs": [
        {
          "internalType": "address",
          "name": "target",
          "type": "address"
        },
        {
          "internalType": "bool",
          "name": "supported",
          "type": "bool"
        }
      ],
      "name": "setSupportedTarget",
      "outputs": [],
      "stateMutability": "nonpayable",
      "type": "function"
    },
    {
      "inputs": [
        {
          "internalType": "address",
          "name": "",
          "type": "address"
        }
      ],
      "name": "supportedTargets",
      "outputs": [
        {
          "internalType": "bool",
          "name": "",
          "type": "bool"
        }
      ],
      "stateMutability": "view",
      "type": "function"
    },
    {
      "inputs": [
        {
          "internalType": "address",
          "name": "newOwner",
          "type": "address"
        }
      ],
      "name": "transferOwnership",
      "outputs": [],
      "stateMutability": "nonpayable",
      "type": "function"
    },
    {
      "inputs": [
        {
          "components": [
            {
              "internalType": "address",
              "name": "sender",
              "type": "address"
            },
            {
              "internalType": "uint256",
              "name": "nonce",
              "type": "uint256"
            },
            {
              "internalType": "bytes",
              "name": "initCode",
              "type": "bytes"
            },
            {
              "internalType": "bytes",
              "name": "callData",
              "type": "bytes"
            },
            {
              "internalType": "bytes32",
              "name": "accountGasLimits",
              "type": "bytes32"
            },
            {
              "internalType": "uint256",
              "name": "preVerificationGas",
              "type": "uint256"
            },
            {
              "internalType": "bytes32",
              "name": "gasFees",
              "type": "bytes32"
            },
            {
              "internalType": "bytes",
              "name": "paymasterAndData",
              "type": "bytes"
            },
            {
              "internalType": "bytes",
              "name": "signature",
              "type": "bytes"
            }
          ],
          "internalType": "struct PackedUserOperation",
          "name": "packedUserOp",
          "type": "tuple"
        },
        {
          "internalType": "bytes32",
          "name": "",
          "type": "bytes32"
        },
        {
          "internalType": "uint256",
          "name": "",
          "type": "uint256"
        }
      ],
      "name": "validatePaymasterUserOp",
      "outputs": [
        {
          "internalType": "bytes",
          "name": "context",
          "type": "bytes"
        },
        {
          "internalType": "uint256",
          "name": "validationData",
          "type": "uint256"
        }
      ],
      "stateMutability": "view",
      "type": "function"
    }
  ],
  "bytecode": "0x60a060405234801561000f575f5ffd5b50604051610ab5380380610ab583398101604081905261002e916100e2565b806001600160a01b03811661005c57604051631e4fbdf760e01b81525f600482015260240160405180910390fd5b61006581610078565b50506001600160a01b0316608052610113565b5f80546001600160a01b038381166001600160a01b0319831681178455604051919092169283917f8be0079c531659141344cd1fd0a4f28419497f9722a3daafe3b4186f6b6457e09190a35050565b80516001600160a01b03811681146100dd575f5ffd5b919050565b5f5f604083850312156100f3575f5ffd5b6100fc836100c7565b915061010a602084016100c7565b90509250929050565b60805161097c6101395f395f818161015b015281816101ef015261051a015261097c5ff3fe608060405260043610610084575f3560e01c80638da5cb5b116100575780638da5cb5b146100fb578063a19f212f1461012b578063b0d691fe1461014a578063dc69c06f1461017d578063f2fde38b146101bb575f5ffd5b80631b3ba1011461008857806352b7512c14610092578063715018a6146100c85780637c627b21146100dc575b5f5ffd5b6100906101da565b005b34801561009d575f5ffd5b506100b16100ac3660046106de565b610289565b6040516100bf92919061072d565b60405180910390f35b3480156100d3575f5ffd5b506100906104f2565b3480156100e7575f5ffd5b506100906100f6366004610769565b610505565b348015610106575f5ffd5b505f546001600160a01b03165b6040516001600160a01b0390911681526020016100bf565b348015610136575f5ffd5b50610090610145366004610818565b610593565b348015610155575f5ffd5b506101137f000000000000000000000000000000000000000000000000000000000000000081565b348015610188575f5ffd5b506101ab610197366004610851565b60016020525f908152604090205460ff1681565b60405190151581526020016100bf565b3480156101c6575f5ffd5b506100906101d5366004610851565b6105f9565b60405163b760faf960e01b81523060048201527f00000000000000000000000000000000000000000000000000000000000000006001600160a01b03169063b760faf99034906024015f604051808303818588803b15801561023a575f5ffd5b505af115801561024c573d5f5f3e3d5ffd5b50506040513481523393507f543ba50a5eec5e6178218e364b1d0f396157b3c8fa278522c2cb7fd99407d4749250602001905060405180910390a2565b60605f6102fa6040518061018001604052805f6001600160a01b031681526020015f815260200160608152602001606081526020015f81526020015f81526020015f81526020015f81526020015f815260200160608152602001606081526020015f6001600160a01b031681525090565b6103076020870187610851565b6001600160a01b03168152602080870135908201526103296040870187610871565b8080601f0160208091040260200160405190810160405280939291908181526020018383808284375f92019190915250505050604082015261036e6060870187610871565b8080601f0160208091040260200160405190810160405280939291908181526020018383808284375f9201919091525050505060608201526103b3608087013561063b565b608083015260a08083019190915286013560c0808301919091526103d99087013561063b565b60e0808401919091526101008301919091526103f790870187610871565b8080601f0160208091040260200160405190810160405280939291908181526020018383808284375f9201919091525050505061012082015261043e610100870187610871565b8080601f0160208091040260200160405190810160405280939291908181526020018383808284375f920191909152505050506101408201526104846060870187610871565b610493916018916004916108bb565b61049c916108e2565b60601c61016082018190525f9081526001602052604090205460ff166104d557604051633bc5944560e11b815260040160405180910390fd5b60405180602001604052805f8152505f9250925050935093915050565b6104fa610663565b6105035f61068f565b565b6040516370a0823160e01b81523060048201527f00000000000000000000000000000000000000000000000000000000000000006001600160a01b0316906370a0823190602401602060405180830381865afa158015610567573d5f5f3e3d5ffd5b505050506040513d601f19601f8201168201806040525081019061058b919061092f565b505050505050565b61059b610663565b6001600160a01b0382165f81815260016020908152604091829020805460ff191685151590811790915591519182527fe5239967f86bdfebd2052a7d2539a8359f2cdefacfbdeb04bdd72e854c994553910160405180910390a25050565b610601610663565b6001600160a01b03811661062f57604051631e4fbdf760e01b81525f60048201526024015b60405180910390fd5b6106388161068f565b50565b5f5f6106478360801c90565b6fffffffffffffffffffffffffffffffff841691509150915091565b5f546001600160a01b031633146105035760405163118cdaa760e01b8152336004820152602401610626565b5f80546001600160a01b038381166001600160a01b0319831681178455604051919092169283917f8be0079c531659141344cd1fd0a4f28419497f9722a3daafe3b4186f6b6457e09190a35050565b5f5f5f606084860312156106f0575f5ffd5b833567ffffffffffffffff811115610706575f5ffd5b84016101208187031215610718575f5ffd5b95602085013595506040909401359392505050565b604081525f83518060408401528060208601606085015e5f606082850101526060601f19601f8301168401019150508260208301529392505050565b5f5f5f5f5f6080868803121561077d575f5ffd5b85356003811061078b575f5ffd5b9450602086013567ffffffffffffffff8111156107a6575f5ffd5b8601601f810188136107b6575f5ffd5b803567ffffffffffffffff8111156107cc575f5ffd5b8860208284010111156107dd575f5ffd5b959860209190910197509495604081013595606090910135945092505050565b80356001600160a01b0381168114610813575f5ffd5b919050565b5f5f60408385031215610829575f5ffd5b610832836107fd565b915060208301358015158114610846575f5ffd5b809150509250929050565b5f60208284031215610861575f5ffd5b61086a826107fd565b9392505050565b5f5f8335601e19843603018112610886575f5ffd5b83018035915067ffffffffffffffff8211156108a0575f5ffd5b6020019150368190038213156108b4575f5ffd5b9250929050565b5f5f858511156108c9575f5ffd5b838611156108d5575f5ffd5b5050820193919092039150565b80356bffffffffffffffffffffffff198116906014841015610928576bffffffffffffffffffffffff196bffffffffffffffffffffffff198560140360031b1b82161691505b5092915050565b5f6020828403121561093f575f5ffd5b505191905056fea2646970667358221220419d1303b682e14a07c1f419656126b2ab582d2f1ba3870b1a956cff30b3347c64736f6c634300081c0033",
  "linkReferences": {},
  "deployedLinkReferences": {}
}